:100000000C943F070C9486070C9486070C94860783
:100010000C9486070C9486070C9486070C9486072C
:100020000C9486070C9486070C94F0290C94C22A31
:100030000C946F210C9486070C9486070C94860709
:100040000C9486070C9486070C9486070C948607FC
:100050000C9486070C94E3210C9486070C94860775
:100060000C9486070C9486070C9486070C948607DC
:100070000C9486070C9486070C9486070C948607CC
:100080000C946B140C9486070C9486070C948607CA
:100090000C9486070C9486070C9486070C948607AC
:1000A0000C9486070C9486070C94860774087908CC
:1000B0007E088D0892088308880807090909140931
:1000C0000B090D090F0911091309160918091A0955
:1000D00025091C091E092009220924092709C4171A
:1000E000C417F717F7173618A119A119A11956182F
:1000F000A119061906196D197619A1199B19131959
:10010000131913191319131913191319131913198F
:10011000131913191319131913191319131923196F
:10012000311938193F1949191A1A1A1A2C1A2C1A86
:10013000231A2C1A2C1A2C1A1A1A1A1A281A2C1AC0
:100140002C1A281A2F2B512B3F2C512B3F2C962B3E
:10015000B92B3F2C0E2C212C6A6D696C6B696E7368
:10016000007069766F74616C2E696F0068747470CA
:10017000733A2F2F00687474703A2F2F00676974D8
:100180006875622E636F6D0040676D61696C2E63E8
:100190006F6D006A61736F6E6D32330000F0002086
:1001A0001E001F0020002100220023002400250043
:1001B000260027002D002E002A002B0014001A0014
:1001C0000800150017001C0018000C001200130096
:1001D0002F00300031002A610400160007000900DA
:1001E0000A000B000D000E000F0033003400000069
:1001F0002861E10000001D001B0006001900050039
:10020000110010003600370038000000E500E00063
:10021000E200E300000000002C00000000000000ED
:100220000000E7000151E600E40035003A003B0021
:100230003C003D003E003F004000410042004300C2
:10024000440045004C000100010052000030013024
:1002500002300530063049000100460047004800E2
:1002600001000100500051004F0004300330010034
:100270000100010001004A004B00000001000100E4
:10028000000001006500010001000100AA00A900B2
:10029000A8004D004E000000010001000100010017
:1002A000000000000100000000000000000001004C
:1002B0000100010001000A44454255473A20656E9D
:1002C00061626C65642E0A000000000000000000FE
:1002D0002A2B2800000000000000000000000000A1
:1002E00000000029000000002C1E342021222434AC
:1002F0002627252E362D3738271E1F20212223247E
:1003000025263333362E37381F0405060708090A19
:100310000B0C0D0E0F101112131415161718191AB5
:100320001B1C1D2F3130232D350405060708090A33
:100330000B0C0D0E0F101112131415161718191A95
:100340001B1C1D2F3130354C000000000000000048
:10035000000000000000000000000000000000009D
:100360000000000000000000000101010101010087
:100370000101010100000000000000000000000079
:100380000000010001000101010101010101010161
:10039000010101010101010101010101010101014D
:1003A0000101010000000101000000000000000048
:1003B000000000000000000000000000000000003D
:1003C00000000001010101000A0025303136620001
:1003D0003A200025303258000A722F632030313223
:1003E000333435363738394142434445460A000AEA
:1003F000002530325800626F756E6365213A200027
:1004000054494D4552332064697361626C65642EB2
:100410000A0054494D45523320656E61626C656433
:100420002E0A007267626C696768742073657420B5
:10043000687376205B454550524F4D5D3A202575D7
:100440002C25752C25750A007267626C69676874C3
:1004500020746F67676C653A207267626C696768C1
:10046000745F636F6E6669672E656E61626C65208E
:100470003D2025750A007267626C69676874206D9B
:100480006F64653A2025750A007267626C69676857
:10049000745F696E6974207267626C696768745F03
:1004A000636F6E6669672E6D6F6465203D20302E28
:1004B0002057726974652064656661756C74207676
:1004C000616C75657320746F20454550524F4D2EF9
:1004D0000A007267626C696768745F696E6974208C
:1004E0006565636F6E666967206973206E6F74203F
:1004F000656E61626C65642E0A007267626C696782
:1005000068745F696E6974207374617274210A0083
:100510007267626C696768745F696E697420636191
:100520006C6C65642E0A007267626C696768745F40
:10053000636F6E6669672E76616C203D2025640AC4
:10054000007267626C696768745F636F6E66696783
:100550002E736174203D2025640A007267626C6905
:100560006768745F636F6E6669672E687565203DA6
:100570002025640A007267686C696768745F636F3E
:100580006E6669672E6D6F6465203D2025640A00E4
:100590007267626C696768745F636F6E6669672E05
:1005A000656E61626C65203D2025640A0072676299
:1005B0006C696768745F636F6E66696720657072E7
:1005C0006F6D0A006565636F6E6669675F7570645D
:1005D0006174655F7267626C696768745F646566A1
:1005E00061756C740A00643214643214783C1E1E07
:1005F000140A0500000000010101020203040505C0
:100600000607090A0B0C0E0F1112141517191B1DE2
:100610001F212325282A2C2F313436393B3E4143D4
:1006200046494C4F5255585A5D6164676A6D707304
:1006300076797C7F8386898C8F9295989B9EA2A5E4
:10064000A7AAADB0B3B6B9BCBEC1C4C6C9CBCED0E3
:10065000D3D5D7DADCDEE0E2E4E6E8EAEBEDEEF073
:10066000F1F3F4F5F6F8F9FAFAFBFCFDFDFEFEFEF7
:10067000FFFFFFFFFFFFFFFEFEFEFDFDFCFBFAFAA2
:10068000F9F8F6F5F4F3F1F0EEEDEBEAE8E6E4E282
:10069000E0DEDCDAD7D5D3D0CECBC9C6C4C1BEBC70
:1006A000B9B6B3B0ADAAA7A5A29E9B9895928F8C20
:1006B000898683807C797673706D6A6764615D5A20
:1006C0005855524F4C494643413E3B393634312F01
:1006D0002C2A282523211F1D1B1917151412110F51
:1006E0000E0C0B0A090706050504030202010101AD
:1006F00000000000000000000101010101010101F2
:1007000001020202020202020202030303030303C4
:100710000303040404040404050505050506060690
:10072000060607070707080808080909090A0A0A48
:100730000A0B0B0B0C0C0C0D0D0D0E0E0F0F0F10EA
:100740001011111112121313141415151616171770
:10075000181819191A1A1B1C1C1D1D1E1F1F2020DA
:100760002122222324252526272728292A2B2B2C22
:100770002D2E2F2F30313233343536363738393A43
:100780003B3C3D3E3F4041424344464748494A4B3B
:100790004C4D4F50515253555657585A5B5C5E5F03
:1007A000606263646667696A6C6D6E70717374769B
:1007B00078797B7C7E8081838486888A8B8D8F91FB
:1007C000929496989A9B9D9FA1A3A5A7A9ABADAF24
:1007D000B1B3B5B7B9BBBDBFC1C4C6C8CACCCFD110
:1007E000D3D6D8DADCDFE1E4E6E8EBEDF0F2F5F7BA
:1007F000FAFCFF0A002530325820006B6579626FE1
:100800006172645F7265706F72743A20000A00252D
:10081000303258006B6579626F6172645F73657422
:100820005F6C65643A200064656C5F6B65795F623C
:1008300069743A2063616E27742064656C3A2025E0
:100840003032580A006164645F6B65795F62697475
:100850003A2063616E2774206164643A2025303247
:10086000580A003F00433E20004C25640A0074698A
:100870006D65725F72656164333228293A202530D4
:10088000346C580A006B65796D61705F636F6E66DA
:1008900069672E6E6B726F3A2025580A006B657976
:1008A000626F6172645F69646C653A2025580A0062
:1008B0006B6579626F6172645F70726F746F636F82
:1008C0006C3A2025580A00686F73745F6B65796213
:1008D0006F6172645F6C65647328293A2025580A39
:1008E000000A092D20537461747573202D0A004786
:1008F00043433A20342E392E33204156522D4C4951
:1009000042433A20322E302E30204156525F41521F
:1009100043483A20617672350A004F5054494F4E91
:10092000533A204C5546412045585452414B455965
:1009300020434F4E534F4C4520434F4D4D414E4465
:10094000204E4B524F20343039360A004255494C24
:10095000443A2022706C616E636B2D342E312D323F
:1009600032322D6736616462626222202831363A63
:1009700034343A3037204F637420323320323031F0
:1009800036290A005649443A20307843304430280A
:10099000534154414E2F4F434F444F292050494417
:1009A0003A2030783636363028474836302072655F
:1009B0007643484E29205645523A20307830303020
:1009C000310A00444553433A20514D4B206B657921
:1009D000626F617264206669726D7761726520660C
:1009E0006F7220536174616E2047483630207769FA
:1009F00074682057533238313220737570706F72BB
:100A0000740A000A092D2056657273696F6E202DD5
:100A10000A000A092D20436F6E736F6C65202D0A42
:100A20004553432F713A09717569740A000A092DFB
:100A3000204D61676963202D0A443A094465627557
:100A400067204D65737361676520546F67676C65D8
:100A50000A583A094D617472697820446562756775
:100A6000204D6F646520546F67676C65202D20539F
:100A7000686F77206B657970726573736573206931
:100A80006E206D617472697820677269640A4B3AEE
:100A9000094B6579626F61726420446562756720F5
:100AA000546F67676C65202D2053686F77206B65E6
:100AB000797072657373207265706F72740A4D3A43
:100AC000094465627567204D6F75736520546F67C3
:100AD000676C650A563A0956657273696F6E0A53F8
:100AE0003A095374617475730A433A09416374692E
:100AF0007661746520436F6E736F6C65204D6F6413
:100B0000650A46312D4631303A0953776974636876
:100B100020746F204C6179657220302D3920284671
:100B20003130203D204C30290A302D393A09537795
:100B30006974636820746F204C6179657220302D70
:100B4000390A4553433A0953776974636820746FCF
:100B5000204C6179657220302028616C7465726E5A
:100B6000617465206B65792031290A4752415645E9
:100B70003A0953776974636820746F204C61796512
:100B80007220302028616C7465726E617465206B10
:100B900065792032290A50415553453A094A756D05
:100BA0007020746F20426F6F746C6F616465722087
:100BB000285265736574290A4E3A094E4B524F20EC
:100BC000546F67676C650A003F004E4B524F3A20E6
:100BD0006F66660A004E4B524F3A206F6E0A000A4B
:100BE0006D6F7573653A206F66660A000A6D6F75E2
:100BF00073653A206F6E0A000A6B6579626F6172E5
:100C0000643A206F66660A000A6B6579626F6172EA
:100C1000643A206F6E0A000A6D61747269783A2036
:100C20006F66660A000A6D61747269783A206F6EA9
:100C30000A000A64656275673A206F66660A000AF0
:100C400064656275673A206F6E0A000A0A4A756D1C
:100C500070696E6720746F20626F6F746C6F61646F
:100C600065722E2E2E2000433E20006261636B6C65
:100C70006967687420737465703A2025750A00628C
:100C800061636B6C6967687420746F67676C653A41
:100C90002025750A006261636B6C69676874206463
:100CA000656372656173653A2025750A0062616348
:100CB0006B6C6967687420696E6372656173653A0D
:100CC0002025750A005B735D004B6579626F617268
:100CD000642073746172742E0A005B575D005B536D
:100CE0005D005B525D005B445D005B435D0018038B
:100CF0004700480036003000200072006500760092
:100D0000430048004E000000180353004100540007
:100D100041004E002F004F0043004F0044004F00A1
:100D200000000403090409027400040100A0FA0988
:100D3000040000010301010009211101000122400A
:100D4000000705810308000A0904010001030000EF
:100D50000009211101000122360007058203080065
:100D60000A09040200020300000009211101000128
:100D7000222200070583032000010705030320004A
:100D80000109040300010300000009211101000111
:100D90002239000705840320000112011001000020
:100DA0000008D0C0606601000102000105010906CB
:100DB000A101050719E029E715002501950875012E
:100DC0008102050819012905950575019102950112
:100DD000750391010507190029F71500250195F8FC
:100DE00075018102C00631FF0974A1010975150062
:100DF00026FF009520750881020976150026FF0060
:100E0000952075089102C005010980A1018502168F
:100E1000810026B7001A81002AB70075109501815C
:100E200000C0050C0901A1018503160100269C02E2
:100E30001A01002A9C02751095018100C005010964
:100E400006A101050719E029E71500250195087598
:100E5000018102950175088101050819012905958F
:100E60000575019102950175039101050719002986
:100E7000FF150026FF00950675088100C0001124AB
:100E80001FBECFEFDAE0DEBFCDBF04B603FE27C042
:100E90008091420290914302A0914402B091450298
:100EA0008730904BA740B04BD1F410924202109281
:100EB0004302109244021092450214BE84B7877F09
:100EC00084BF0FB6F894A8958091600088618093E4
:100ED0006000109260000FBEE0E0F8E3099511E0B9
:100EE000A0E0B1E0EAEEF9E502C005900D92A6336C
:100EF000B107D9F712E0A6E3B1E001C01D92A23418
:100F0000B107E1F70E942B270C94F32C0C940000FE
:100F1000FF93EF93E0913601F0913701309709F09C
:100F20000995EF91FF910895FC018591803011F0B2
:100F3000EFDFFBCF0895FF27E0E230E247FF0CC070
:100F4000419597FF09C0EDE2609570958095909569
:100F5000611D711D811D911D27FF02C0219530E388
:100F600050E2AA27660F771F881F991FAA1FA41790
:100F700010F0A41B63955A95A9F7AA3008F0A95F51
:100F8000A05DAF93F395611571058105910541F75A
:100F9000ED3211F4EF93F395F21718F43F93F395B4
:100FA000FBCF8F91B5DFFA95E1F70895E991F991BB
:100FB0008591803021F0853219F0AADFF9CF0895AC
:100FC00020E0E89455915532C1F3503311F4689400
:100FD00055915A3348F4505390F3220F022E220FAA
:100FE000220F200D250FF4CF0EF4219589919991B0
:100FF000533619F3533729F1533559F1BC0188277A
:101000009927E8945C3621F48991999168945591D7
:10101000543639F446EF7EF077FF0DC08FEF9FEF27
:101020000AC055374AE039F0583540E121F05236D0
:1010300042E009F00895FF93EF937DDFEF91FF9178
:10104000B7CFFF93EF93FC0181918030B9F360DF5C
:10105000FBCFFF93EF9368DFF1CFDF93CF93CDB753
:10106000DEB72596A3DFCF91DF9108950C94030D91
:10107000229A08950E94020D0C94380881FF02C044
:101080002A9808952A9A0895CF93DF9361111CC07E
:10109000EC010E9422208272809338019A81992368
:1010A00041F0882311F085E301C089E20E947A1F94
:1010B00007C0882311F085E301C089E20E94CD1F9B
:1010C000DF91CF910C946C20DF91CF910895462F42
:1010D00050E04730510560F5DC01FA01EA5AFF4F54
:1010E00012968C910C94A62C882311F183E991E03F
:1010F0001DC08823E9F088E891E018C08823C1F07A
:101100008DE791E013C0882399F085E791E00EC048
:10111000882371F08CE691E009C0882349F081E6CC
:1011200091E004C0882321F088E591E00E94E6095F
:1011300080E090E0089581E0089581E008950C94A6
:101140009D080E94081A2FEF84E39CE02150804004
:101150009040E1F700C000000C9408220F931F9309
:10116000CF93DF938C01FC01C081D181CE010E941D
:10117000FB1EBE010E94020CEC01B8010E949F08F8
:10118000882309F41DC1B801CE010E94920C882366
:1011900009F416C1C633F0E7DF0741F4F801828194
:1011A000882309F40DC10E947D100AC1C73380E76E
:1011B000D80708F09DC0C53190E7D90708F081C075
:1011C000C230E0E7DE0708F452C0F80182818823CC
:1011D00009F459C00E94F620811102C00E94D0205B
:1011E0000E94092190E09093330280933202FE0125
:1011F000E350F047E231F10530F4E35AFF4F8091BC
:1012000032020C94A62C80913202816027C0826049
:1012100025C0846023C0806121C080621FC08064BB
:101220001DC080681BC08460886018C08E7F16C097
:101230008D7F14C08B7F12C08F7E10C08F7D0EC03B
:101240008F7B0CC08F770AC08B7F877F07C087FB9F
:10125000222720F991E0922790FB87F980933202B0
:10126000809132020E940D210E94081AA9C0C11566
:10127000F0E7DF0779F0C130D047A1F081E080933B
:10128000390180933A01C801DF91CF911F910F91ED
:101290000C949B08F8018281882309F491C00E9474
:1012A000A1088EC0F8018281882309F489C086EBE9
:1012B00092E00E9494078091E60181608093E601AC
:1012C0007FC0C43390E7D90741F4F80182818823B5
:1012D00009F476C00E94111273C0C533D04771F66D
:1012E000F8018281882309F46BC00E94071268C04C
:1012F000CA33F0E7DF0741F4F8018281882309F45B
:101300005FC00E94E9105CC0CB3380E7D807D8F4F7
:10131000F8018281C833F0E7DF0731F4882309F44C
:101320004FC00E94B4104CC0C933D04730F488235A
:1013300009F446C00E94951043C0882309F440C0B8
:101340000E94CF103DC0CC33E0E7DE07A1F4F801E6
:101350008281882321F01092390182E01BC08091A4
:101360003901811106C086E20E945D1686E20E9464
:10137000301782E01DC0CC33F0E7DF07E0F0CD335B
:10138000D04709F07BCFF8018281882331F0109299
:101390003A0180E20E947F1713C080913A018111C7
:1013A00006C087E20E945D1687E20E94301780E245
:1013B0000E94861705C0F801828181110E940411E4
:1013C00080E0DF91CF911F910F9108950F931F93AC
:1013D000CF938C01F80124912223F9F030E0F90138
:1013E000E853FD4FC491F901E85BFC4F249122239F
:1013F00059F081EE0E945D168C2F0E945D168C2F95
:101400000E94301781EE04C08C2F0E945D168C2F35
:101410000E9430170F5F1F4FDDCFCF911F910F91AB
:1014200008950C943608269A2E988FEF9FEF90938C
:1014300087008093860082E28093800089E1809318
:1014400081000C94FA230E94130A0C943A08282F66
:101450002E9880918000211108C08F7D809380009C
:1014600010928B0010928A00089580628093800011
:10147000243019F48FEF9FEF0FC084E090E0821BBF
:101480009109880F991F2FEF3FEFA90102C05695D0
:1014900047958A95E2F7CA0190938B0080938A0062
:1014A00008950C943E082EE0729FF001112436E45A
:1014B000839FE00DF11D1124E60FF11DEE0FFF1FBC
:1014C000E256FE4F859194910E94140C811540E5DF
:1014D000940708F047C0811520E4920708F01BC16B
:1014E000883E910520F5803E910508F08AC1883A32
:1014F000910578F4853A910508F0A5C081309105F1
:1015000009F47FC108F436C18430910508F079C12F
:1015100031C18D3B910508F4A1C0803C910508F4D0
:1015200029C1FC01EE0FFF1FE45EFF4FEEC08115E5
:1015300030E2930758F4811541E0940708F061C147
:10154000803F910508F416C190650895811520E348
:10155000920708F0DDC0FC01FF70EE0FFF1FE4569C
:10156000FE4FD3C0811535E5930708F043C08115C0
:1015700044E5940708F0E6C0811522E5920708F5D6
:10158000811531E5930708F0C9C0482F437021E069
:1015900030E002C0220F331F4A95E2F73C68AC01ED
:1015A00064E0569547956A95E1F74370342B8F7048
:1015B0008695869540E2849FC0011124822B932B4F
:1015C0000895282F26952695AC014370552781153F
:1015D000934508F0A8C080E2289F9001112481E083
:1015E00090E002C0880F991F4A95E2F7822B932B57
:1015F0009C680895803340E7940790F4803220E798
:10160000920708F0AAC0811536E5930708F49FC039
:101610009C0130562115304108F0ACC09F709BC032
:10162000813320E7920709F49FC008F49AC08233FF
:1016300040E7940709F49BC08333904709F09AC0B0
:1016400080E093ED0895853A910509F496C0863AB5
:10165000910509F095C082E890E40895883A9105D3
:1016600009F491C0893A910509F490C08A3A91052C
:1016700009F48FC08B3A910509F48EC08C3A91051C
:1016800009F48DC08B3B910509F48CC08C3B91050E
:1016900009F48BC08D3A910509F48AC0803B91050D
:1016A00009F489C08E3A910509F488C08F3A9105F2
:1016B00009F487C0813B910509F486C0823B9105FE
:1016C00009F485C0833B910509F484C0843B9105EE
:1016D00009F483C0853B910509F482C0863B9105DE
:1016E00009F481C0873B910509F480C0883B9105CE
:1016F00009F47FC0893B910509F47EC08A3B9105BE
:1017000009F47DC080E094E4089585919491089552
:101710009927906C08959F70906A0895982F882754
:10172000816F906A089590E2299F9001112481E0D1
:1017300090E002C0880F991F4A95E2F7822B932B05
:101740009A680895982F8827846F906A08958F71FA
:101750009927982F88279062089580529047946D1A
:10176000089580E091ED089580E090ED089580E087
:1017700092ED089580E090E0089581E890E4089566
:1017800083E890E4089582EE94E4089589EE94E469
:1017900008958AEE94E4089585EB94E4089586EB29
:1017A00094E4089583EB94E4089584EB94E408951D
:1017B00087EB94E408958CEC94E408958DEC94E424
:1017C000089583E895E408958AE895E4089582E908
:1017D00095E4089584E995E4089581E296E40895F6
:1017E00083E296E4089584E296E4089585E296E41F
:1017F000089586E296E4089587E296E408958AE2E1
:1018000096E408959EE0799FF001112496E4899F63
:10181000E00DF11D1124E60FF11DEE0FFF1FE25642
:10182000FE4F8591949108958238910549F1B0F465
:101830008133910509F458C048F48932910509F4BF
:101840004EC08A32910509F454C00895853391053C
:1018500009F440C08933910599F00895833E9105BC
:1018600029F138F4803E910591F0823E9105A1F076
:101870000895863E9105F9F0873E910531F108956E
:101880002091320220FD3AC021FD38C00895809198
:10189000320280FD35C032C08091320282FF32C0F8
:1018A0008091320284FD30C083EE39C080913202D3
:1018B00082FD28C0F5CF8091320283FF27C080913E
:1018C000320284FD21C087EE2AC08091320283FD5E
:1018D0001DC0F5CF8091320285FD1AC01BC08091DA
:1018E000320285FD17C014C08091320286FD14C0FB
:1018F00015C08091320286FD11C00EC080EE0FC06F
:1019000089E30DC082EE0BC080E009C086EE07C0FF
:1019100089E205C085E303C08AE201C081E390E06B
:10192000089508950F931F93CF93FB0122812111F6
:1019300002C0C1E041C08C01C0914801C11125C065
:1019400085319047B1F70E94910C81E08093480166
:101950000E94A121909347018093460110923B0180
:1019600010923D0110923C0110923F0110923E01F5
:1019700010924101109240011092430110924201D5
:10198000109245011092440117C080914601909138
:1019900047010E94B921883C910558F690913B017E
:1019A000E92FF0E0EE0FFF1FE45CFE4F1183008390
:1019B0009F5F90933B01C0E08C2FCF911F910F91BF
:1019C0000895ADE1B1E041E050E08D91E82FF0E005
:1019D00094E0F595E7959A95E1F721A18F70BA010A
:1019E00002C0660F771F8A95E2F7CB01962F90957C
:1019F000922391A392A1892B82A371E0A232B7070F
:101A000021F708950895089585B7806885BF85B743
:101A1000806885BF0E94E10CAFE0B1E041E050E09A
:101A20008D91E82FF0E094E0F595E7959A95E1F730
:101A300021A18F70BA0102C0660F771F8A95E2F765
:101A4000CB01962F9095922391A392A1892B82A3EB
:101A500071E0AD31B70721F7E3E5F1E0A9E4B1E0CA
:101A6000119211921D921D9281E0ED35F807C1F798
:101A70000C94230A8F929F92AF92BF92CF92DF92E3
:101A8000EF92FF920F931F93CF93DF9309E411E03E
:101A90007801CDE1D1E0CC24C394D12C35E0832E64
:101AA00041EFA42E43E0B42E9C2E980C8991E82F90
:101AB000F0E094E0F595E7959A95E1F721A18F7014
:101AC000A60102C0440F551F8A95E2F7CA01922F62
:101AD000982B91A392A18095892382A350EA5A95CD
:101AE000F1F7EFE0F1E020E030E040E050E061911C
:101AF000A62FB0E084E0B595A7958A95E1F790967A
:101B00008C9190E06F7002C0959587956A95E2F789
:101B100080FD08C0C601042E02C0880F991F0A94D8
:101B2000E2F702C080E090E0282B392B4F5F5F4F37
:101B30004E305105E1F6D7018D919D917D018217BF
:101B4000930751F1FD013297318320838091000189
:101B5000882301F18091E60180FF04C086EF93E0C5
:101B60000E9494078091E60180FF0CC080910001E3
:101B70001F928F93BF92AF920E942D080F900F90EB
:101B80000F900F908091E60180FF04C08FEE93E0EC
:101B90000E949407809200010E94E10C9C1286CF63
:101BA000809100018823C1F0815080930001882337
:101BB00039F0EFE9FFE03197F1F700C000000CC009
:101BC000E3E5F1E0D8018D919D918D018193919391
:101BD000B1E003351B07B1F70E94110A81E0DF91E4
:101BE000CF911F910F91FF90EF90DF90CF90BF901A
:101BF000AF909F908F900895E82FF0E0EE0FFF1FB9
:101C0000ED5AFE4F808191810895CF92DF92EF923D
:101C1000FF920F931F93CF93DF9388ED93E00E9481
:101C2000940783E5E82E81E0F82EC0E0D0E093ED44
:101C3000C92E93E0D92E0AEC13E0DF93CF93DF9205
:101C4000CF920E942D0880ED93E00E949407F70147
:101C5000819191917F010E94B6209F938F931F9352
:101C60000F930E942D0888EC93E00E949407219620
:101C70008DB79EB708960FB6F8949EBF0FBE8DBF66
:101C8000C530D105D1F6DF91CF911F910F91FF9013
:101C9000EF90DF90CF9008952EB1342F309523230D
:101CA0003EB1432B3FB7F894FC01680F791FE6174C
:101CB000F70789F0819198E04EB9000000C087FFD6
:101CC0002EB9880F000000C000C000C02EB900C0AF
:101CD0009A9591F7ECCF3FBF08952DB1242B2DB9E4
:101CE0009B01220F331F620F731F0E944C0E87EC63
:101CF00090E00197F1F700C00000089544E00C94D3
:101D00006D0EEF92FF920F931F93CF93DF93E90134
:101D1000662309F44BC0242F30E0EFEFF0E0E61B20
:101D2000F109B901E69F9001E79F300DF69F300D54
:101D30001124232F8B01031B11095CE3E52EF12CE9
:101D4000B7010E947E2CFB01BC01069FC001079FCA
:101D5000900D169F900D1124B7010E947E2CE23049
:101D6000F105B1F040F4309779F0319711F5832FF8
:101D7000242F461B21C0E430F105A1F068F035970F
:101D8000C1F4842F861B18C0832F262F230F14C065
:101D9000862F830FE42F03C0E42FE61B842F432FED
:101DA0002E2F0AC0842F462F430F06C0842F242FC6
:101DB00003C080E020E040E0E42FF0E0ED50F94F78
:101DC0004491E22FF0E0ED50F94F9491E82FF0E0CC
:101DD000ED50F94FE49149839883EA83DF91CF91E5
:101DE0001F910F91FF90EF90089588E090E00C9480
:101DF000B42CAB01BC0188E090E00C94D12C809114
:101E0000E60180FF08C084EC95E09F938F930E94C9
:101E10002D080F900F9083E080931202809113029F
:101E2000807884668F77809313028CEC8093140201
:101E30008093150260911202709113028091140236
:101E4000909115020C94F90E8091E60180FF08C074
:101E50008DEA95E09F938F930E942D080F900F902D
:101E60008091E60180FF0FC08091120281701F9265
:101E70008F9380E995E09F938F930E942D080F9098
:101E80000F900F900F908091E60180FF10C080911D
:101E9000120286958F731F928F9385E795E09F932B
:101EA0008F930E942D080F900F900F900F908091AC
:101EB000E60180FF19C080911202881F8827881FC1
:101EC00090911302292F220F822B97FB992790F9CB
:101ED0009F938F938BE595E09F938F930E942D089E
:101EE0000F900F900F900F908091E60180FF0EC031
:101EF000809114021F928F9381E495E09F938F93BA
:101F00000E942D080F900F900F900F908091E60186
:101F100080FF0EC0809115021F928F9387E295E09B
:101F20009F938F930E942D080F900F900F900F900A
:101F300008958091120280FF06C068E070E08AE197
:101F400092E00C947E0E80E090E0FC01E65EFD4F96
:101F5000118210821282039688319105B1F7EDCF7C
:101F600020E030E0F901E65EFD4F8183608342832B
:101F70002D5F3F4F28313105A9F70C94990FEF924F
:101F8000FF920F931F93CF93DF9300D01F92CDB793
:101F9000DEB70091120210911302209114023091C9
:101FA0001502009316021093170220931802309323
:101FB00019022091120220FF21C0042FF62EE92ED3
:101FC000182F9E012F5F3F4F0E94810E80911602B5
:101FD00010FB87F98093160216958091170280787E
:101FE000182BE0FA17F910931702F09218020093D9
:101FF00019024B8169818A810E94B00F0F900F9066
:102000000F90DF91CF911F910F91FF90EF90089566
:102010000F931F93CF93DF93EC01062F142F909112
:10202000120290FF65C0892F8E77823021F4CE0195
:102030000E94BF0F1BC0892F86958F732EE3280F38
:102040002F73243018F41091150210C0865C8F7322
:10205000893060F4C92FCC1FCC27CC1FD09113023C
:102060008D2F880FC82BD7FBDD27D0F98091120266
:10207000C0FB87F980931202C69580911302807885
:10208000C82BD0FBC7F9C09313020093140210931E
:1020900015026091120270911302809114029091C6
:1020A00015020E94F90E809115021F928F93809164
:1020B00014021F928F9380911202881F8827881F15
:1020C00090911302292F220F822B97FB992790F9C9
:1020D0009F938F9383E294E09F938F930E942D08A8
:1020E0008DB79EB708960FB6F8949EBF0FBE8DBFF2
:1020F000DF91CF911F910F910895E2E1F2E02081ED
:10210000221F2227221F30911302432F440F842FB6
:10211000822B37FB992790F90A9668E671E00E94B6
:10212000922C438162810C94081020911202221F8C
:102130002227221F30911302432F440F842F822B1A
:1021400037FB992790F98A3091051CF4825A9E4FEB
:1021500001C00A9768E671E00E94922C4091150236
:10216000609114020C94081060911402862F90E084
:102170008F3E910514F46F5E01C06FEF80911202E3
:10218000881F8827881F90911302292F220F97FB01
:10219000992790F940911502822B0C9408106091B8
:1021A0001402862F90E0419714F0615101C060E065
:1021B00080911202881F8827881F90911302292F6F
:1021C000220F97FB992790F940911502822B0C94CE
:1021D000081040911502842F90E08F3E910514F471
:1021E0004F5E01C04FEF80911202881F8827881F21
:1021F00090911302292F220F97FB992790F9609154
:102200001402822B0C94081040911502842F90E048
:10221000419714F0415101C040E080911202881FA3
:102220008827881F90911302292F220F97FB992747
:1022300090F960911402822B0C94081080916E0129
:1022400081110FC081E080936E0189E0809391003D
:102250008FB7F89493E09093990090ED9093980045
:102260008FBF08958091710082608093710080918A
:10227000E60180FF08C082E194E09F938F930E9463
:102280002D080F900F900895809171008D7F80939D
:1022900071008091E60180FF08C080E094E09F9388
:1022A0008F930E942D080F900F9008959091120225
:1022B00090FF4BC09178811102C0926007C08831B5
:1022C00010F09E6203C08F73880F982B90931202B8
:1022D0006091120270911302809114029091150284
:1022E0000E94F90E8091120286958F731F928F9330
:1022F00086E794E09F938F930E942D0880911202AD
:10230000982F9E770F900F900F900F90923019F4A6
:102310000E94441107C08695825C8F73863110F449
:102320000E94321180911202881F8827881F909185
:102330001302292F220F97FB992790F9409115023C
:1023400060911402822B0C94081008958091E6018C
:1023500081608093E60180E195E09F938F930E94D6
:102360002D0881E080936F018091E6010F900F901E
:1023700080FF08C08AEF94E09F938F930E942D08FE
:102380000F900F900E94F620811110C08091E601FD
:1023900080FF08C082ED94E09F938F930E942D08E8
:1023A0000F900F900E94D0200E94FF0E0E94F50E09
:1023B000609312027093130280931402909315029B
:1023C0006E77C1F48091E60180FF08C089E894E04F
:1023D0009F938F930E942D080F900F900E94FF0EE5
:1023E0000E94F50E60931202709313028093140200
:1023F000909315020E94240F0E941E1180911202D8
:1024000080FF04C086958F730C94561108958091B7
:10241000120286958F738F5F883108F081E00C94EB
:10242000561180911202982F909590FB80F980931D
:102430001202609112027091130280911402909125
:1024400015020E94F90E8091120281701F928F93E3
:1024500088E494E09F938F930E942D08809112024C
:102460000F900F900F900F9080FF04C086958F7390
:102470000C9456110E9444112FEF80E792E02150F6
:1024800080409040E1F700C000000C94990FCF937A
:10249000C82F80916C0190916D010E94B921EC2FA1
:1024A000F0E0E151FA4FE491F0E08E179F0718F148
:1024B0000E94A12190936D0180936C01E0916B01CA
:1024C000F0E0ED50FA4F449180911202881F882766
:1024D000881F90911302292F220F97FB992790F9BB
:1024E00060911402822B0E94BF0F80916B0190E0DB
:1024F000019680936B01CF910895CF93C82F80915F
:10250000690190916A010E94B921EC2FF0E0E45139
:10251000FA4FE491F0E08E179F07E8F00E94A121A6
:1025200090936A01809369014091150260911402B1
:1025300080916701909168010E94BF0F80916701AF
:1025400090916801019668E671E00E947E2C90935C
:10255000680180936701CF910895CF92DF92FF9237
:102560000F931F93CF93DF93F82E80916501909185
:1025700066010E94B921EF2DE695F0E0E451FA4F93
:10258000E491F0E08E179F07E8F10E94A12190935B
:102590006601809365010AE112E0C0E0D0E088E6C0
:1025A000C82EDD24D39480916301909164018C0F37
:1025B0009D1FB6010E947E2C9801409115026091EA
:1025C00014020E94810EAD960D5F1F4FC83681E048
:1025D000D80749F70E94990F209163013091640157
:1025E000F0FE0AC0C9010196BE010E947E2C9093A4
:1025F00064018093630106C0215031093093640166
:1026000020936301DF91CF911F910F91FF90DF9095
:10261000CF9008958F929F92AF92BF92CF92DF9208
:10262000EF92FF920F931F93CF93DF93C82F80FFFA
:1026300003C0DD24DA9402C0DD24D39480916101CB
:10264000909162010E94B921C695EC2FF0E0E7510C
:10265000FA4FE491F0E08E179F0708F466C00E94DD
:10266000A12190936201809361019AE1E92E92E0A9
:10267000F92E0CE112E0C0E0D0E027E0822E912C90
:10268000F80131971082F7011082F801108287E07B
:10269000A82EB12CC12C809160018C0D87FD885F24
:1026A000992787FD9095C817D907E9F4209115025D
:1026B0002A9DC0012B9D900D1124B4010E94922CE3
:1026C000462F80911202881F8827881F909113023D
:1026D000592F550F97FB992790F997016091140294
:1026E000852B0E94810ECD0CF1E0AF1AB10899F64E
:1026F000219683E0E80EF11C0D5F1F4FC830D10515
:1027000009F0BECF0E94990F8091600191E0D9122B
:1027100006C0811102C087E006C0815004C090E06D
:1027200001968770992780936001DF91CF911F9167
:102730000F91FF90EF90DF90CF90BF90AF909F9060
:102740008F9008959F92AF92BF92CF92DF92EF92B7
:10275000FF920F931F93CF93DF93CDB7DEB76897A8
:102760000FB6F894DEBF0FBECDBF182F80915E016B
:1027700090915F010E94B921E12FF0E0EA51FA4FF8
:10278000E491F0E08E179F0708F493C00E94A12106
:1027900090935F0180935E01CE0101967C015E0102
:1027A00093E0A90EB11CC12CD12C8701F501319702
:1027B0001082F7011082F5011082912C9091010195
:1027C00080915D01999E800D112487FD04C08830A1
:1027D0001CF087E001C080E0992787FD9095C8161E
:1027E000D906A1F480911202881F8827881F909132
:1027F0001302592F550F97FB992790F99701409194
:10280000150260911402852B0E94810E9394F7E0CB
:102810009F12D4CF8FEFC81AD80A93E0E90EF11CAB
:10282000E3E0AE0EB11CF8E0CF16D10409F0BECF44
:10283000ACE1B2E089E090E0FC01E770FF279D0188
:1028400021503109AF01440F551FE40FF51FBF019F
:10285000600F711FFB014181F90140832150310953
:10286000FB014081F9014083FB0122812C930196F9
:1028700013968131910501F70E94990F9091010102
:1028800080915D01913049F48A3F2CF489EF809367
:102890005D018FEF08C081500AC08F303CF08EE0A0
:1028A00080935D0181E08093010103C08F5F80937D
:1028B0005D0168960FB6F894DEBF0FBECDBFDF9105
:1028C000CF911F910F91FF90EF90DF90CF90BF902D
:1028D000AF909F9008951F920F920FB60F92112400
:1028E0002F933F934F935F936F937F938F939F9318
:1028F000AF93BF93EF93FF938091120286958F73EE
:102900009EE3980F9F73943020F482500E944712E8
:1029100023C09AE3980F9F73933020F486500E944F
:102920007D121AC097E3980F9F73963020F4895058
:102930000E94AD1211C091E3980F9F73963020F45E
:102940008F500E940A1308C09BE2980F9F73933028
:1029500018F485510E94A213FF91EF91BF91AF919E
:102960009F918F917F916F915F914F913F912F91A7
:102970000F900FBE0F901F90189590937501809344
:1029800074010895E0917401F0917501309721F080
:102990000190F081E02D099480E00895EF92FF927C
:1029A0000F931F93CF93DF93E0917401F091750122
:1029B0003097B1F18C010280F381E02D099580916F
:1029C000E60182FF2DC080FF04C08BEF97E00E94DC
:1029D0009407E80110E285EFE82E87E0F82E809159
:1029E000E60180FF0BC088811F928F93FF92EF92C8
:1029F0000E942D080F900F900F900F90115021966C
:102A00001111EDCF8091E60180FF0AC083EF97E0BE
:102A1000DF91CF911F910F91FF90EF900C9494074D
:102A2000DF91CF911F910F91FF90EF90089520912A
:102A30007201309173018217930771F090937301C3
:102A400080937201E0917401F0917501309721F04B
:102A50000680F781E02D099408952091700130914E
:102A600071018217930771F0909371018093700147
:102A7000E0917401F0917501309721F00084F185A7
:102A8000E02D0994089508950C9443150E9498210F
:102A90000E94040D0E942A220E94FA230C94A6117F
:102AA000CF93C82F8091E60182FF1EC080FF04C033
:102AB00084E198E00E9494078091E60180FF0CC0B9
:102AC0001F92CF938FE098E09F938F930E942D08E1
:102AD0000F900F900F900F908091E60180FF04C03F
:102AE0008DE098E00E9494078C2FCF910C94510AAE
:102AF0004F925F927F928F929F92AF92BF92CF92AE
:102B0000DF92EF92FF920F931F93CF93DF93CDB796
:102B1000DEB72A970FB6F894DEBF0FBECDBF0E9476
:102B20003A0D97E7C92E91E0D92E00E010E0AA24D3
:102B3000A394B12C702E802F0E94FC0D4C01F60145
:102B4000419051906F014826592641145104B1F427
:102B50000F5F1F4F0530110569F78FEF89838A8357
:102B60001B820E94A1218160782F9D838C834981E3
:102B70005A816B818D810E942F163AC08091E601A7
:102B800081FD0E94050E20E030E07501022E02C09A
:102B9000EE0CFF1C0A94E2F7C70184219521892BD2
:102BA00009F12E837F828E209F2091E0892809F4ED
:102BB00090E098870E94A1218160782F9A87898769
:102BC0004E815F8168858A850E942F16000F111F34
:102BD000F801E958FE4F80819181E826F926F182BB
:102BE000E08206C02F5F3F4F2E30310571F6B0CF27
:102BF000109176010E94C2141817D9F00E94C214D5
:102C0000809376012A960FB6F894DEBF0FBECDBF33
:102C1000DF91CF911F910F91FF90EF90DF90CF90B8
:102C2000BF90AF909F908F907F905F904F900C944B
:102C300050152A960FB6F894DEBF0FBECDBFDF91B8
:102C4000CF911F910F91FF90EF90DF90CF90BF90A9
:102C5000AF909F908F907F905F904F900895CF930B
:102C6000DF93CDB7DEB72B970FB6F894DEBF0FBE5C
:102C7000CDBF4F83588769877A878B87DE0111968E
:102C800086E0FD0111928A95E9F785E0FE0137960D
:102C900001900D928A95E1F749815A816B817C817F
:102CA0008D819E810E94A01C2B960FB6F894DEBFEA
:102CB0000FBECDBFDF91CF910895CF93882309F444
:102CC000CDC0C82F823859F40E94C21481FDC6C0FD
:102CD00089E30E947A1F0E946C2089E30CC083382C
:102CE00079F40E94C21480FDB9C083E50E947A1F66
:102CF0000E946C2083E50E94CD1FCF910C946C2024
:102D0000843859F40E94C21482FDA8C087E40E944E
:102D10007A1F0E946C2087E4EECF8CEF8C0F813AF3
:102D200048F48C2F0E94AB23811198C08C2F0E94F5
:102D30007A1FE3CF80E28C0F883048F4C77081E0BF
:102D400001C0880FCA95EAF70E942520D6CF8BE5EF
:102D50008C0F833078F4C53A29F0C63A31F083E815
:102D600090E005C081E890E002C082E890E0CF9159
:102D70000C94171588E58C0F853108F06FC0C83AA0
:102D800061F1C93A69F1CA3A71F1CB3A79F1CC3AB9
:102D900081F1CB3B89F1CC3B91F1CD3A99F1C03B2C
:102DA000A1F1CE3AA9F1CF3AB1F1C13BB9F1C23BA1
:102DB000C1F1C33BC9F1C43BD1F1C53BD9F1C63B1D
:102DC000E1F1C73BE9F1C83BF1F1C93BF9F1CA3B7D
:102DD00009F43FC080E090E03EC082EE90E03BC04E
:102DE00089EE90E038C08AEE90E035C085EB90E047
:102DF00032C086EB90E02FC083EB90E02CC084EBD8
:102E000090E029C087EB90E026C08CEC90E023C0D6
:102E10008DEC90E020C083E891E01DC08AE891E04D
:102E20001AC082E991E017C084E991E014C081E200
:102E300092E011C083E292E00EC084E292E00BC007
:102E400085E292E008C086E292E005C087E292E067
:102E500002C08AE292E0CF910C942D15CF91089593
:102E6000882309F44BC0823859F40E94C21481FFB0
:102E700045C089E30E947A1F0E946C2089E30CC040
:102E8000833871F40E94C21480FF38C083E50E9429
:102E90007A1F0E946C2083E50E94CD1F0C946C2049
:102EA000843859F40E94C21482FF28C087E40E942B
:102EB0007A1F0E946C2087E4EFCF9CEF980F913A25
:102EC00058F390E2980F983050F4877091E001C069
:102ED000990F8A95EAF7892F0E942B20DFCF9BE577
:102EE000980F933020F480E090E00C941715885AE6
:102EF000853120F480E090E00C942D15089588230E
:102F000021F00E9425200C946C200895882321F044
:102F10000E942B200C946C2008957F928F929F9298
:102F2000AF92BF92CF92DF92EF92FF920F931F93D7
:102F3000CF93DF931F92CDB7DEB77C01C62E772EDD
:102F4000FC01058102950F70128111110E9442202F
:102F50000E94731F882379F0112369F080E28C0DA1
:102F6000883048F082E00E945C1F0E94731F91E04D
:102F7000D82ED92601C0D12CE72DE295EF70F0E0D4
:102F8000E159FF4F0C94A62C872D807F072D0F70E1
:102F9000882311F00295007F112399F0002309F492
:102FA00092C180E28C0D883010F0C11004C0802FD7
:102FB0000E94252003C0802F0E9435200E946C2093
:102FC00082C18C2D0E943017002309F4BAC180E21F
:102FD0008C0D883010F0C11004C0802F0E942B206F
:102FE00003C0802F0E943B200E946C20AAC1872D25
:102FF000807F972D9F70803211F4892F03C0892F15
:103000008295807FCC2021F0F1E0CF16A1F01DC089
:10301000112339F0002319F1013009F50E945520E0
:1030200090C1002319F0013009F48BC189830E94FB
:103030005820898105C1112321F0063008F081C193
:103040000EC0053008F07DC1FBC0112359F00023EC
:1030500031F0F701958190FF36C19F7095830E94F2
:103060007F176FC1002309F4EBC033C1872D86950C
:103070008695837090E0009719F0019761F061C127
:10308000112321F08C2D972D937002C080E090E0E9
:103090000E94171556C1112321F08C2D972D937086
:1030A00002C080E090E00E942D154BC1872D8370F7
:1030B00009F052C0111145C18C2D829586958770FB
:1030C000880F880F9C2D9F70892E912CA12CB12CDC
:1030D000082E04C0880C991CAA1CBB1C0A94D2F7A9
:1030E000C4FE14C00FE010E020E030E0B901A801F8
:1030F00004C0440F551F661F771F8A95D2F7CB0176
:10310000BA01609570958095909503C060E070E07D
:10311000CB01272D26952695237030E022303105EE
:1031200069F02330310589F0682979298A299B299A
:103130002130310571F00E94E81D03C16829792909
:103140008A299B290E94041EFCC00E94E81DC5011B
:10315000B4010E94CC1DF5C0112319F0872D817098
:1031600001C08695882309F4ECC08C2D8295869544
:103170008770880F880F9C2D9F70892E912CA12C11
:10318000B12C082E04C0880C991CAA1CBB1C0A94E4
:10319000D2F7C4FE14C00FE010E020E030E0B90127
:1031A000A80104C0440F551F661F771F8A95D2F7E8
:1031B000CB01BA01609570958095909503C060E051
:1031C00070E0CB01272D269526952370422F50E0E5
:1031D0004230510569F04330510589F06829792959
:1031E0008A299B294130510571F00E94C21EA9C055
:1031F000682979298A299B290E94DE1EA2C00E9483
:10320000C21EC501B4010E94A61E9BC08C2D90E079
:10321000FC01E05EF109E531F10508F050C0E1582C
:10322000FF4F0C94A62C0C2D0F70872D8F7111233E
:1032300021F00E943F1E802F12CF0E94601E802F1F
:103240000E9486177EC0112341F0053008F079C036
:10325000872D8F710E94851E74C0063008F071C0E2
:10326000F7CF112339F0872D8F710E943F1E69C05F
:103270001123C9F3872D8F710E94601E62C0112334
:1032800029F0872D8F710E942A1E5BC00E94201E8C
:1032900058C0112351F0172D1F71812F0E943F1E1E
:1032A00063E0812F0E94531F4CC081E00E945C1F8D
:1032B000023008F446C082E00E945C1F42C0112325
:1032C00031F0002381F28C2D0E945D163AC000235C
:1032D00089F28C2D0E94301734C0472D4F706C2D11
:1032E000C7010E9467080E94441D2BC0111129C00C
:1032F000472D4F7050E042305105B9F04CF4411564
:10330000510581F041305105E1F40E94352419C086
:103310004330510569F04430510599F48C2D0E94D9
:10332000C0240FC00E940B240CC00E94642409C05A
:103330000E948A2406C0472D4F706C2DC7010E9441
:103340004408DD20F9F00E944F1F80FD1BC0F701EB
:1033500012820E94491F0E943F1EC7010E94D1197C
:103360000E94491F0F90DF91CF911F910F91FF9005
:10337000EF90DF90CF90BF90AF909F908F907F9015
:103380000C94601E0F90DF91CF911F910F91FF90D1
:10339000EF90DF90CF90BF90AF909F908F907F90F5
:1033A00008950F931F93CF93DF93EC018881998148
:1033B0002B813C81232BB9F09F3F11F48F3F99F073
:1033C000CE010E94AE08882371F0688179818A81DC
:1033D0000E94451F8C010E94FA1E0E94C11DB80167
:1033E000CE010E948D17DF91CF911F910F9108950B
:1033F0000E9442200E9452200E9414200E946C20B1
:1034000080E090E00E94171580E090E00C942D156C
:103410000E9432200C94F8190E943A1FE92FE2957D
:10342000EF70F0E03297EE30F105B0F4EC56FF4F5C
:103430000C94A62C803F91F018F4803E68F40EC0E6
:10344000843F51F40BC0803E48F0813F29F406C010
:1034500093FB882780F9089580E0089581E008951E
:10346000CF93DF9300D000D01F92CDB7DEB70F907F
:103470000F900F900F900F90DF91CF910895CF9301
:10348000DF9300D000D000D0CDB7DEB726960FB6C0
:10349000F894DEBF0FBECDBFDF91CF9108951F938B
:1034A000CF93DF93C091810116E080918201C8170C
:1034B00099F0D0E01C9FF0011D9FF00D1124ED57F5
:1034C000FE4F4081518162817381848195810E9488
:1034D0003F1A2196C770E9CFDF91CF911F910895D0
:1034E0004091B3015091B4016091B5017091B60162
:1034F0008091B7019091B8010C943F1A8091B80166
:1035000082958F7009F054C08091B501882309F429
:103510004FC080918101A09182016091B3017091AF
:10352000B4014091B6015091B701B6E08A1709F491
:103530003FC090E041155105C1F17F3F11F46F3F4D
:10354000A1F1B89FF001B99FF00D1124ED57FE4F86
:10355000218172132AC02081621327C02281211188
:1035600024C0238134812417350710F421503109F8
:10357000241B350B283C3105C0F42091B8012F7075
:1035800020612093B80126E0289FF001299FF00DCB
:103590001124E857FE4F80818F708061808383EB18
:1035A00091E00E94D1190C944F1A01968770BECFFA
:1035B0000895CF92DF92EF92FF920F931F93CF93D4
:1035C000DF93CDB7DEB762970FB6F894DEBF0FBEBC
:1035D000CDBF8C0185E0F801DE011D9601900D92B2
:1035E0008A95E1F7D8014C9111965C91119712964A
:1035F0006C9112971396CD90DC9014973091B30193
:103600007091B4018091B6019091B701009709F4CF
:103610006BC17F3F19F43F3F09F466C1E090B501EB
:10362000EE2009F4C0C02091B801C816D90628F0D0
:10363000F601E81BF90BCF0104C0809590958C0D25
:103640009D1DFF24F394883C910578F0F12C207F98
:1036500009F0C6C07C2DD98AC88A89890E94301A8F
:1036600083EB91E00E94D119B1C0822F807F09F0D5
:1036700046C0751314C0341312C0611110C02F70EE
:1036800020612093B8010E94701A83EB91E00E94A0
:10369000D1198091B801D80115968C932EC0CD28F0
:1036A00019F15F3F11F44F3FF9F0F62E61111CC084
:1036B000809181012091820136E0821709F45AC07D
:1036C00090E0389FF001399FF00D1124ED57FE4F27
:1036D0007181571306C07081471303C07281711145
:1036E00003C001968770E9CFF62E662309F418C14E
:1036F0008091B80181608093B801F12C11C17513DC
:1037000008C0341306C0611104C08091B801D8010B
:10371000C3C04D875E878D859E856A8B0E940C1A7B
:103720006A898823E1F16623D1F12091B801822FC3
:1037300082958F7090E0029774F08091B301909120
:10374000B40198878F831986DB86CA862C87CE01C1
:1037500007960E94D11986E0F801A3EBB1E0019031
:103760000D928A95E1F70E947E1A0E94701AFF243A
:10377000F394D6C04D875E878D859E850E943A1F43
:10378000292F22952F7030E0223031050CF0BCC07B
:103790009F7009F0B6C0805E883008F4C1C0C801CF
:1037A0000E94D119E4CFC816D90608F453C0F60117
:1037B000E81BF90BCF01883C910508F450C0F12CAF
:1037C0007C2DD98AC88A89890E94301AE3EBF1E0FE
:1037D00086E0DF011D928A95E9F70E94701AA0C069
:1037E000751314C0341312C0611110C08091B80158
:1037F000F8018583C8010E94D11986E0E3EBF1E06E
:10380000DF011D928A95E9F7FE2C8AC04D875E87FD
:103810008D859E856A8B0E940C1A6A89882309F41B
:10382000BECF662309F4BBCF2091B801822F8295C9
:103830008F7090E002970CF48ECF8091B30190913D
:10384000B4019A8389831B82DD82CC822E83CE01D0
:1038500001967FCF809590958C0D9D1DACCFF62E57
:10386000662309F49CCF75132EC034132CC020910D
:10387000B80120FD1FC0822F82958F70D9F0D8012A
:1038800015962C9315978F3049F08F5F982F92954E
:10389000907F822F8F70892B15968C93C8010E9480
:1038A000D11986E0F801A3EBB1E001900D928A9561
:1038B000E1F793CF86E0F801A3EBB1E001900D9220
:1038C0008A95E1F72DC04D875E878D859E850E9484
:1038D0000C1A811140CF8091B80181608093B801AA
:1038E000C8010E94D1191CC0662309F458CF4D8726
:1038F0005E878D859E850E940C1A882309F44FCF20
:103900002ACF811148CF0CC0243031050CF047CFAD
:103910009F7009F440CFF8019581907F09F03BCF6B
:103920008F2D62960FB6F894DEBF0FBECDBFDF912C
:10393000CF911F910F91FF90EF90DF90CF9008955E
:103940001F93CF93DF93CDB7DEB72C970FB6F894C4
:10395000DEBF0FBECDBF4F83588769877A878B87BD
:103960009C87CE0107960E94D91A882369F08F811F
:1039700098852A853B85232BF1F19F3F09F063C091
:103980008F3F09F060C037C086E0FE013796DE0148
:10399000119601900D928A95E1F76F817885EA85FD
:1039A000FB85309741F17F3F11F46F3F21F120916A
:1039B000820130E0C9010196877099274091810109
:1039C00050E08417950709F447C069837A83FD8323
:1039D000EC8396E0929FD001939FB00D1124AD57D8
:1039E000BE4FFE01319601900D929A95E1F78093BA
:1039F00082010E944F1A16E080918101909182010C
:103A00008917C1F1189FC00111248D579E4F0E9444
:103A1000D91A882379F1E09181011E9FF0011124C8
:103A2000ED57FE4F40815181628173818481958180
:103A30000E943F1A8091810190E00196877099273A
:103A400080938101D9CF4F81588569857A858B858F
:103A50009C850E943F1ACFCF0E94081A10928201C3
:103A600010928101E3EBF1E086E0DF011D928A957F
:103A7000E9F7C1CF2C960FB6F894DEBF0FBECDBFCD
:103A8000DF91CF911F910895EF92FF920F931F93B3
:103A9000CF93DF938C01892B09F46CC0F12CEE24B9
:103AA000E394E8012196F8018491843740F484304E
:103AB00008F051C0813081F0823019F15BC0853748
:103AC00009F444C0A8F19CE7980F903708F052C061
:103AD0008F770E94301741C00E5F1F4FFE01C491C7
:103AE00080E28C0F883048F4C7708E2D01C0880F9B
:103AF000CA95EAF70E94452014C08C2F0E945D16DB
:103B00002DC00E5F1F4FFE01C49180E28C0F8830E4
:103B100058F4C7708E2D01C0880FCA95EAF70E942D
:103B20004B200E946C201AC08C2F0E94301716C0A8
:103B30000E5F1F4FFE01C491CC2381F08FE99FE0FF
:103B40000197F1F700C00000C150F6CF0E5F1F4F84
:103B5000FE01F49003C00E945D168E018F2D882314
:103B600009F49FCFEFE9FFE03197F1F700C00000C3
:103B70008150F5CFDF91CF911F910F91FF90EF9082
:103B8000089508956093BD017093BE018093BF01B5
:103B90009093C0010C94F8190F931F930091BD01ED
:103BA0001091BE012091BF013091C001DC01CB0119
:103BB000802B912BA22BB32B8093BD019093BE0140
:103BC000A093BF01B093C0011F910F910C94F819FD
:103BD0000F931F930091BD011091BE012091BF0171
:103BE0003091C001DC01CB0180239123A223B323B8
:103BF0008093BD019093BE01A093BF01B093C0011B
:103C00001F910F910C94F8190F931F930091BD0110
:103C10001091BE012091BF013091C001DC01CB01A8
:103C200080279127A227B3278093BD019093BE01DF
:103C3000A093BF01B093C0011F910F910C94F8198C
:103C40001092B9011092BA011092BB011092BC01FE
:103C50000C94F81941E050E060E070E004C0440FBB
:103C6000551F661F771F8A95D2F74093B90150936D
:103C7000BA016093BB017093BC010C94F81941E048
:103C800050E060E070E004C0440F551F661F771FCE
:103C90008A95D2F78091B9019091BA01A091BB01A8
:103CA000B091BC01482B592B6A2B7B2B4093B90157
:103CB0005093BA016093BB017093BC010C94F81946
:103CC00041E050E060E070E004C0440F551F661F03
:103CD000771F8A95D2F740955095609570958091A1
:103CE000B9019091BA01A091BB01B091BC014823E8
:103CF00059236A237B234093B9015093BA016093FF
:103D0000BB017093BC010C94F81941E050E060E0F5
:103D100070E004C0440F551F661F771F8A95D2F7C5
:103D20008091B9019091BA01A091BB01B091BC0101
:103D3000482759276A277B274093B9015093BA0136
:103D40006093BB017093BC010C94F8190F931F93FF
:103D50000091B9011091BA012091BB013091BC01D1
:103D6000DC01CB01802B912BA22BB32B8093B901CB
:103D70009093BA01A093BB01B093BC011F910F9126
:103D80000C94F8190F931F930091B9011091BA0187
:103D90002091BB013091BC01DC01CB018023912338
:103DA000A223B3238093B9019093BA01A093BB01DE
:103DB000B093BC011F910F910C94F8190F931F93AE
:103DC0000091B9011091BA012091BB013091BC0161
:103DD000DC01CB0180279127A227B3278093B9016B
:103DE0009093BA01A093BB01B093BC011F910F91B6
:103DF0000C94F8190895CF92DF92EF92FF920F93EF
:103E00001F93CF93DF938C01C090BD01D090BE0172
:103E1000E090BF01F090C0018091B9019091BA018A
:103E2000A091BB01B091BC01C82AD92AEA2AFB2A79
:103E3000CFE1D0E0D701C6010C2E04C0B695A795FE
:103E4000979587950A94D2F780FF06C0B8018C2F0A
:103E50000E94530A019721F4219760F780E001C086
:103E60008C2FDF91CF911F910F91FF90EF90DF90FA
:103E7000CF900895CF93DF93EC010E94FB1EBE010B
:103E80000E94530ADF91CF910895CB010E943A1FFF
:103E900008958091C10185958595859508958091B6
:103EA000C1018770089598E0899F90011124262B05
:103EB0002093C1010C943F1E2091C1018095822363
:103EC0008093C101982F977069F430E0482F5527EF
:103ED00047FD50952417350729F0859585958595DB
:103EE0000C94601E08959091C101977081E009F4CF
:103EF00080E0089590910E01992321F09091320273
:103F000097FD09C02091020130910301F901329619
:103F10009FEF40E030C0982F9695969596959F31EB
:103F2000A0F4E0910201F0910301E90FF11D877007
:103F300021E030E0A90102C0440F551F8A95E2F745
:103F4000CA019181892B818308959091E60190FFA8
:103F500023C01F928F9385E498E09F938F930E94D4
:103F60002D080F900F900F900F9008959F3F39F0FC
:103F70004F5F4E3141F051915813F8CF0DC05111A0
:103F8000F7CF942FF5CF9F3F39F0F901E90FF11DDD
:103F900097FDFA9582830895089590910E019923D3
:103FA00021F09091320297FD09C0209102013091D9
:103FB0000301F9013296205E3F4F30C0982F96954D
:103FC000969596959F31A8F4E0910201F091030136
:103FD000E90FF11D877021E030E0A90102C0440F14
:103FE000551F8A95E2F7CA018095918189238183C3
:103FF00008959091E60190FF16C01F928F9387E27B
:1040000098E09F938F930E942D080F900F900F9030
:104010000F9008953196E217F30729F090819813D5
:10402000F9CF1082F7CF089581E090E0E09102018E
:10403000F0910301E80FF91F10820196803291057B
:10404000A9F708958091E50108959091E501892BE4
:104050008093E501089580959091E50189238093EF
:10406000E50108951092E50108959091E401892BEE
:104070008093E401089580959091E40189238093D1
:10408000E40108951092E40108959091E301892BD1
:104090008093E301089580959091E30189238093B3
:1040A000E30108951092E30108958093C2010895F9
:1040B0001092C20108958091020190910301FC01C8
:1040C00031969C01205E3F4F80E0919191118F5F6E
:1040D000E217F307D1F70895E0910201F09103018F
:1040E0008091E5018083E0910201F09103019081CC
:1040F0008091E401892B8083E0910201F09103011A
:1041000090818091E301892B80838091C201882373
:1041100061F0E0910201F09103019081892B80838D
:104120000E945B2081111092C20180910201909146
:1041300003010C94CE1490933701809336010895B7
:104140008295982F9C7C392F36953695282F23738E
:1041500044E0249FC0011124932F982B292F2A7A01
:104160002695892F8575880F822B08951F93CF93ED
:10417000DF931F92CDB7DEB799830E94A020182F3E
:104180009981892F0E94A020212F30E0322F2227F1
:10419000A901482BCA010F90DF91CF911F9108957B
:1041A0006DEE7EEF80E090E00E94DD2C60E082E02A
:1041B00090E00E94C02C60E083E090E00E94C02C60
:1041C00060E084E090E00E94C02C60E085E090E038
:1041D0000E94C02C60E086E090E00E94C02C40E08D
:1041E00050E0BA0188E090E00C94D12C80E090E09F
:1041F0000E94BA2C21E08D3E9E4F09F020E0822FD4
:10420000089582E090E00C94AC2C83E090E00C9454
:10421000AC2C84E090E00C94AC2C682F84E090E00F
:104220000C94C02C86E090E00C94AC2C682F86E0B7
:1042300090E00C94C02C80913902843051F110929E
:10424000E70120E488E190E00FB6F894A895809308
:1042500060000FBE2093600080E00E94270A80E08B
:104260000E94510A83B7817F846083BF83B78160D6
:1042700083BF7894889583B78E7F83BF0FB6F894F9
:10428000A895809160008861809360001092600022
:104290000FBE089508950895CF9380E00E94270AE5
:1042A0000E944A210E943A0D0E944B21C0E08C2FAF
:1042B0000E94FC0D892B29F4CF5FC530C1F780E047
:1042C00001C081E0CF9108950E94081A80E00E9409
:1042D000270A0E94FA230E94C2140C94510A1F92CA
:1042E0000F920FB60F9211248F939F93AF93BF93AA
:1042F0008091E701811113C08091E8019091E9015B
:10430000A091EA01B091EB014196A11DB11D8093EE
:10431000E8019093E901A093EA01B093EB01BF910A
:10432000AF919F918F910F900FBE0F901F90189596
:1043300082E084BD93E095BD9AEF97BD80936E00B7
:1043400008952FB7F8948091E8019091E901A09128
:10435000EA01B091EB012FBF08952FB7F894609157
:10436000E8017091E9018091EA019091EB012FBF82
:104370000895CF92DF92EF92FF920F931F932FB782
:10438000F8944091E8015091E9016091EA0170913F
:10439000EB012FBF6A017B01EE24FF248C0120E09A
:1043A00030E0C016D106E206F30610F44150510980
:1043B0009A01281B390BC9011F910F91FF90EF90B3
:1043C000DF90CF9008951F920F920FB60F92112495
:1043D0008F939F93AF93BF938091E8019091E901F0
:1043E000A091EA01B091EB010196A11DB11D80934E
:1043F000E8019093E901A093EA01B093EB01BF912A
:10440000AF919F918F910F900FBE0F901F901895B5
:104410000E947529F8942FEF87EA91E62150804099
:104420009040E1F700C0000087E090EBDC01809352
:10443000420290934302A0934402B09345029CE051
:1044400088E10FB6F894A895809360000FBE909312
:104450006000FFCF0E94F620811102C00E94D02090
:104460000E9401218093E6010E94092190E090932F
:104470003302809332020E940521682F70E080E0B1
:1044800090E00C94C21DCF93C82F1F928F9389E6A2
:1044900098E09F938F930E942D0881E090E0A0E028
:1044A000B0E0BC01CD0104C0660F771F881F991FC3
:1044B000CA95D2F70E94C21D0F900F900F900F90D7
:1044C000CF910C94081ACF938732A8F58E3108F05B
:1044D00030C1803109F49FC0F8F4873009F45FC01F
:1044E000A8F4863009F02BC18091E601817F8E7F90
:1044F0008093E60182E19AE00E94940787E69CE0BF
:104500000E94940781E08093EC0147C08B30F1F169
:104510008E3009F46CC013C1863109F4AEC020F4AA
:10452000813109F4EEC00BC1893109F48FC08B31A0
:1045300009F449C004C1883349F150F4893209F4BF
:10454000FAC0853309F4F7C0873209F4F4C0F7C024
:10455000833409F4F0C028F48A3308F4F0C0895396
:10456000EBC0883409F0EBC00E94081A8BE49CE091
:104570000E9494072FEF83ED90E3215080409040FC
:10458000E1F700C000000E94082207C08DE29AE017
:1045900002C082E39CE00E949407C1E0D5C08091F4
:1045A000E601C82FC095C170C0FB80F98093E60179
:1045B000CC2379F38FE39CE00E9494078091E6017D
:1045C000866088603DC09091E60191FBCC27C0F9E0
:1045D00081E0C827892FC0FB81F98093E601CC23B5
:1045E00019F085E29CE027C087E19CE0D4CF909150
:1045F000E60192FBCC27C0F981E0C827892FC0FBD8
:1046000082F98093E601CC2319F088E09CE013C086
:1046100088EF9BE0C0CF9091E60193FBCC27C0F9D7
:1046200081E0C827892FC0FB83F98093E601CC2362
:1046300051F08CEE9BE00E9494078091E60181602E
:104640008093E60181C08FED9BE0A5CF83E09AE0E7
:104650000E94940783EC99E00E94940784E899E013
:104660000E9494078CE499E00E9494078AE199E003
:104670000E9494078FEE98E08ECF81EE98E00E9422
:1046800094070E94C2141F928F9387EC98E09F9327
:104690008F930E942D0880910E011F928F9380EBC3
:1046A00098E09F938F930E942D08809111021F9292
:1046B0008F938DE998E09F938F930E942D088091AE
:1046C000320287FB882780F91F928F9385E898E054
:1046D0009F938F930E942D080E94AD219F938F93EB
:1046E0007F936F938EE698E09F938F930E942D089F
:1046F0008DB79EB746960FB6F8949EBF0FBE8DBF7E
:104700004CCF0E94081A9091320297FBCC27C0F937
:1047100081E0C827892FC0FB87F980933202CC2320
:1047200029F085ED9BE00E9494070EC08AEC9BE087
:1047300032CF8D5101C080E00E9443222ECF88EC01
:104740009BE00E949407C0E08C2FCF91089580E0F9
:10475000089580E00895CF93C82F8091EC018823BD
:1047600019F0813049F03EC0E0910201F09103015F
:1047700080818232C9F507C0E0910201F091030106
:104780008081823261F48C2F0E94A723811104C0A2
:104790008C2F0E94632224C081E090E021C08C2FE6
:1047A0000E94A92381111BC0C43189F018F4CB30B9
:1047B00029F010C0C93259F0C83361F482E19AE09F
:1047C0000E94940785E698E00E94940708C0109222
:1047D000EC010CC083E698E00E94940707C081E0DA
:1047E000817006C01092EC0180E002C080E0F8CF3A
:1047F000CF9108950E94F620811102C00E94D0201E
:104800000E9412218093340280FF02C0869501C06D
:1048100080E00C94270A80913402982F9695292FD6
:1048200030E0243031054CF49F5F990F8170892B63
:104830008160809334020E9416218091E60180FFFE
:104840000FC08091340286951F928F938DEA9CE071
:104850009F938F930E942D080F900F900F900F90B1
:104860008091340286950C94270A80913402982F07
:10487000969591F09158990F8170892B809334020D
:104880008E7F91E009F490E08091340290FB80F9F2
:10489000809334020E9416218091E60180FF0FC0B0
:1048A0008091340286951F928F9385E99CE09F93B7
:1048B0008F930E942D080F900F900F900F90809172
:1048C000340286950C94270A80913402982F909593
:1048D00090FB80F9809334020E9416218091E601BA
:1048E00080FF0FC08091340281701F928F938FE7F9
:1048F0009CE09F938F930E942D080F900F900F9034
:104900000F908091340280FF02C0869501C080E044
:104910000C94270A90913402892F86958F5F8F77A8
:104920009170853028F4880F892B8093340202C05F
:1049300090933402809134028E7F91E009F490E0EC
:104940008091340290FB80F9809334020E941621FA
:104950008091E60180FF0FC08091340286951F92FE
:104960008F938BE69CE09F938F930E942D080F906E
:104970000F900F900F908091340286950C94270A27
:1049800020913402922F96958927982F990F822F84
:104990008170892B809334028E7F91E009F490E03E
:1049A0008091340290FB80F9809334020E9416219A
:1049B0008091340286950C94270A80911002089504
:1049C00008959FB7F8941092EF019FBF909139021C
:1049D000943009F057C09091E9009F703091EC003D
:1049E000232F217030FD20E8922B23E02093E90053
:1049F0002091EB0020FF43C02091EE0027FF3FC035
:104A00002091ED01222321F02091E80025FF37C0FD
:104A10001092ED0126E03091E80035FD15C030918F
:104A20003902343061F53091EB0035FD28C021505A
:104A300021F481E08093ED0122C0EFE9FFE031979E
:104A4000F1F700C00000E7CF8093F1008091E8000B
:104A500085FD0AC08091E80080FFFCCF8091E800CE
:104A60008E778093E80006C08FB7F89421E02093FA
:104A7000EF018FBF9F709093E90080E008959F70D1
:104A80009093E9008FEF0895CF93DF9300D01F92AA
:104A9000CDB7DEB720913902243021F523E02983F8
:104AA0009B838A8382E08093E9008FEF9091E800F6
:104AB000815095FD06C095ED9A95F1F700008111A2
:104AC000F5CF8091E80085FF0DC040E050E063E045
:104AD00070E0CE0101960E94E0278091E8008E7779
:104AE0008093E8000F900F900F90DF91CF91089581
:104AF000CF93DF9300D01F92CDB7DEB79C0180919A
:104B00003902843019F592E099833B832A8390938C
:104B1000E9008FEF9091E800815095FD06C095ED7A
:104B20009A95F1F700008111F5CF8091E80085FF9B
:104B30000DC040E050E063E070E0CE0101960E94BD
:104B4000E0278091E8008E778093E8000F900F9027
:104B50000F90DF91CF910895CF93DF93EC01909167
:104B60003902943009F046C080910E018823D9F0B3
:104B70008091320287FF17C09093E9008FEF9091E8
:104B8000E800815095FD06C095E19A95F1F7000087
:104B90008111F5CF8091E80085FF2CC040E050E006
:104BA00060E270E017C081E08093E9008FEF9091A0
:104BB000E800815095FD06C095ED9A95F1F700004B
:104BC0008111F5CF8091E80085FF14C040E050E0EE
:104BD00068E070E0CE010E94E0278091E8008E77C7
:104BE0008093E80080E2FE01A0EFB1E001900D9219
:104BF0008A95E1F7DF91CF9108958AEE9CE00E94BB
:104C0000940780913802811109C00E9475290E9481
:104C1000D2298091E20084608093E200089586EEBC
:104C20009CE00E94940710923802089582EE9CE066
:104C30000C9494078EED9CE00C9494078AED9CE014
:104C40000E9494070C9464212091EE012F5F822F23
:104C500062E30E94722C992319F02093EE010895CB
:104C60001092EE018091EF01882371F18091390259
:104C7000843041F58091E9008F702091EC00922FF3
:104C8000917020FD90E8892B93E09093E90090913A
:104C9000EB0090FF14C09091EE0097FF10C0909130
:104CA000E80095FF03C01092F100F9CF9091E80061
:104CB00090FF05C09091E8009E779093E8008F7078
:104CC0008093E9001092EF01089542E061EC81E0E9
:104CD0000E94EF2842E061EC82E00E94EF2842E26D
:104CE00061EC83E00E94EF2842E261EC84E00C94E6
:104CF000EF2880913B02833009F455C030F48130B5
:104D000071F0823009F48EC008958A3009F47AC0B7
:104D10008B3009F460C0893009F09CC020C08091BC
:104D20003A02813A09F096C08091E800877F80932B
:104D3000E80080913E0290913F02892B21F460E2CD
:104D400080EF91E003C060E080E090E070E00E94BE
:104D50002B288091E8008B778093E800089580915C
:104D60003A02813209F076C080913E0290913F0272
:104D7000009719F0039709F06DC08091E800877FD4
:104D80008093E8008091E80082FD05C0809139029F
:104D90008111F8CF5FC08091F10080931002809163
:104DA000E8008B7753C080913A02813A09F052C0F3
:104DB00080913E0290913F02892B09F04BC0809177
:104DC000E800877F8093E8008091E80080FFFCCFB7
:104DD00080910E0136C080913A028132D9F58091DE
:104DE0003E0290913F02892BA9F58091E800877FD0
:104DF0008093E8000E94242980913C0280930E0158
:104E00000C94081A80913A02813221F58091E800D1
:104E1000877F8093E8000E94242980913D0280933F
:104E20001102089580913A02813AA1F48091E8003C
:104E3000877F8093E8008091E80080FFFCCF80911D
:104E400011028093F1008091E8008E778093E80052
:104E50000C942429089584B7877F84BF0FB6F894F3
:104E6000A895809160008861809360001092600036
:104E70000FBE80E880936100109261000E9444158B
:104E80000E9475290E94D2298091E200846080935B
:104E9000E20081EE94E20E949B2078940E94572CBD
:104EA0000E94461584E091E00E94BD1489EC9CE0CC
:104EB0000E94940780913902853089F485EC9CE04A
:104EC0000E9494070E941B2180913702882391F34E
:104ED0000E944C21882371F30E94CA27EBCF0E94C5
:104EE0007815E8CF292F332723303105C9F064F432
:104EF0002130310581F02230310509F043C084E7CB
:104F000090E026E23DE042C021323105F1F022324C
:104F1000310541F137C082E190E02AE93DE036C039
:104F200099278130910541F08230910541F0892B1C
:104F300049F5E2E2FDE005C0E8E0FDE002C0EEEE8A
:104F4000FCE0849190E09F0121C06430D8F4E62F0A
:104F5000F0E0EE0FFF1FE25DFE4F2081318189E01E
:104F600090E014C0643070F470E0FB01EE0FFF1F9E
:104F7000EA5DFE4F20813181FB01EE5DFE4F8081B5
:104F800090E004C080E090E020E030E0FA0131835E
:104F90002083089580E189BD82E189BD09B400FEC6
:104FA000FDCF8091D8008F7D8093D8008091E00064
:104FB00082608093E0008091E00081FDFCCF089545
:104FC000CF92DF92EF92FF920F931F93CF93DF93D5
:104FD000EC018B016A010E944329811133C0C11485
:104FE000D10439F0F60180819181081B190BC80F9B
:104FF000D91FE12CF12C0115110519F18091E80060
:1050000085FD16C08091E8008E778093E800C1147A
:10501000D10449F0F60180819181E80EF91EF182F8
:10502000E08285E00FC00E944329882321F30AC053
:1050300089918093F10001501109FFEFEF1AFF0AE7
:10504000DACF80E0DF91CF911F910F91FF90EF9029
:10505000DF90CF90089520914002309141022617B1
:10506000370748F06115710539F42091E8002E7773
:105070002093E80001C0B90140E061157105A9F174
:1050800020913902222309F443C0253009F442C09B
:105090002091E80023FD40C02091E80022FD32C0AD
:1050A0002091E80020FFE9CF4091F3002091F20029
:1050B00030E0342BFC01CF016115710559F0283027
:1050C000310540F481918093F100615071092F5FA7
:1050D0003F4FF1CF41E02830310509F040E0209109
:1050E000E8002E772093E800C8CF4111C9CF0AC04D
:1050F00080913902882361F0853061F08091E80069
:1051000083FD0AC08091E80082FFF2CF80E008951D
:1051100082E0089583E0089581E00895209140029F
:10512000309141022617370748F06115710539F4AF
:105130002091E8002E772093E80001C0B901FC011E
:1051400020E06115710591F180913902882309F4FD
:1051500040C0853009F43FC08091E80083FD3DC028
:105160008091E80082FD2FC08091E80080FFE9CFA8
:105170002091F3008091F20090E0922B611571056F
:1051800059F08830910540F424912093F100319634
:10519000615071090196F2CF21E0089709F020E0F3
:1051A0008091E8008E778093E800CBCF2111CCCF9F
:1051B0000AC080913902882361F0853061F08091C6
:1051C000E80083FD0AC08091E80082FFF2CF80E012
:1051D000089582E0089583E0089581E00895982F6E
:1051E000973058F59093E900981739F07091EC00DA
:1051F0002091ED005091F00003C0242F762F50E055
:1052000021FF19C03091EB003E7F3093EB003091CD
:10521000ED003D7F3093ED003091EB003160309335
:10522000EB007093EC002093ED005093F000209180
:10523000EE0027FF07C09F5FD3CF8F708093E900F8
:1052400081E0089580E0089580913A0287FF11C0BF
:105250008091E80082FD05C0809139028111F8CF6C
:1052600011C08091E8008B770BC0809139028823B0
:1052700049F08091E80080FFF8CF8091E8008E77B8
:105280008093E80008952091E4003091E50095E6D0
:105290004091EC00842F817040FF22C08091E80093
:1052A00080FD1CC080913902882391F0853091F0F7
:1052B0008091EB0085FD10C04091E4005091E50025
:1052C0004217530729F39A01915011F784E008958A
:1052D00082E0089583E0089581E0089580E00895D4
:1052E0004091E80042FFDECF08950E94E3290E942A
:1052F000EB29E0EEF0E0808181608083E8EDF0E072
:1053000080818F77808319BCA7EDB0E08C918E7F70
:105310008C9380818F7E80831092380208950F9342
:105320001F93CF93DF930E94E3290E94EB29C8EDDE
:10533000D0E088818F77888388818068888388819E
:105340008F7D888319BC1092390210923502109219
:1053500037021092360200EE10E0F80180818B7F58
:10536000808388818160888342E060E080E00E94E1
:10537000EF28E1EEF0E080818E7F8083E2EEF0E0C6
:10538000808181608083808188608083F801808152
:105390008E7F8083888180618883DF91CF911F9188
:1053A0000F910895E8EDF0E080818F7E8083E7ED36
:1053B000F0E080818160808384E082BF81E080931F
:1053C00038020C948F29E8EDF0E080818E7F808395
:1053D0001092E20008951092DA001092E100089510
:1053E0001F920F920FB60F9211242F933F934F935A
:1053F0005F936F937F938F939F93AF93BF93EF933D
:10540000FF938091E10082FF0BC08091E20082FF58
:1054100007C08091E1008B7F8093E1000E942426E9
:105420008091DA0080FF1FC08091D80080FF1BC0F0
:105430008091DA008E7F8093DA008091D90080FF1E
:105440000DC080E189BD82E189BD09B400FEFDCFB8
:1054500081E0809339020E94FD2505C019BC10929D
:1054600039020E940F268091E10080FF19C08091CF
:10547000E20080FF15C08091E2008E7F8093E20001
:105480008091E20080618093E2008091D800806288
:105490008093D80019BC85E0809339020E941A26B7
:1054A0008091E10084FF30C08091E20084FF2CC035
:1054B00080E189BD82E189BD09B400FEFDCF809104
:1054C000D8008F7D8093D8008091E1008F7E8093FB
:1054D000E1008091E2008F7E8093E2008091E20003
:1054E00081608093E20080913502882311F084E08E
:1054F00007C08091E30087FD02C081E001C083E026
:10550000809339020E941E268091E10083FF29C00A
:105510008091E20083FF25C08091E100877F809326
:10552000E10082E080933902109235028091E1001F
:105530008E7F8093E1008091E2008E7F8093E20075
:105540008091E20080618093E20042E060E080E0D0
:105550000E94EF288091F00088608093F0000E9404
:105560001626FF91EF91BF91AF919F918F917F91FF
:105570006F915F914F913F912F910F900FBE0F90C0
:105580001F9018951F920F920FB60F9211242F9310
:105590003F934F935F936F937F938F939F93AF93BB
:1055A000BF93CF93DF93EF93FF93C091E900CF7048
:1055B0008091EC00D82FD17080FDD0E81092E900E6
:1055C0008091F000877F8093F00078940E94062BF2
:1055D0001092E9008091F00088608093F000CD2B5C
:1055E000CF70C093E900FF91EF91DF91CF91BF9110
:1055F000AF919F918F917F916F915F914F913F916B
:105600002F910F900FBE0F901F9018951F93CF935F
:10561000DF93CDB7DEB7AA970FB6F894DEBF0FBE03
:10562000CDBFEAE3F2E088E08E0F9091F100919314
:105630008E13FBCF0E9479268091E80083FF1FC163
:1056400080913A0290913B02492F50E04A30510537
:1056500008F015C1FA01EE55FF4F0C94A62C8038C6
:1056600081F0823809F00BC180913E028F708093E7
:10567000E9008091EB0085FB882780F91092E90012
:1056800006C080913602909137029111826090910C
:10569000E800977F9093E8008093F1001092F1006A
:1056A000C8C0282F2D7F09F0EAC0882319F0823066
:1056B00061F0E5C080913C02813009F0E0C0933098
:1056C00009F080E0809337022BC080913C02811169
:1056D00027C080913E028F7009F4D1C08093E90009
:1056E0002091EB0020FF1CC0933021F48091EB004F
:1056F000806214C09091EB0090619093EB0021E0E8
:1057000030E0A90102C0440F551F8A95E2F740938B
:10571000EA001092EA008091EB0088608093EB0031
:105720001092E9008091E800877F86C08111A7C0B0
:1057300010913C021F778091E3008078812B809349
:10574000E3008091E800877F8093E8000E9424298D
:105750008091E80080FFFCCF8091E3008068809317
:10576000E300111102C082E001C083E0809339029E
:1057700086C08058823008F082C080913C029091AF
:105780003D028C3D53E0950779F583E08A838AE2F8
:1057900089834FB7F894DE01139620E03EE051E292
:1057A000E32FF0E050935700E49120FF03C0E2950F
:1057B000EF703F5FEF708E2F90E0EA3010F0C796E9
:1057C00001C0C0968D939D932F5F243149F74FBF41
:1057D0008091E800877F8093E8006AE270E0CE0164
:1057E00001960E942B2814C0AE014F5F5F4F60915D
:1057F0003E020E947227BC01892B09F440C090919F
:10580000E800977F9093E80089819A810E948E2812
:105810008091E8008B778093E80031C0803879F57B
:105820008091E800877F8093E80080913502809323
:10583000F1008091E8008E778093E8000E9424298F
:105840001EC081111CC090913C029230C0F4809126
:10585000E800877F8093E800909335020E94242916
:1058600080913502811106C08091E30087FD02C05E
:1058700081E001C084E0809339020E946526809116
:10588000E80083FF0AC08091E800877F8093E800EA
:105890008091EB0080628093EB00AA960FB6F8949B
:1058A000DEBF0FBECDBFDF91CF911F910895CF9383
:1058B000809139028823A1F0C091E900CF709091C6
:1058C000EC00892F817090FD80E8C82B1092E900D0
:1058D0008091E80083FD0E94062BCF70C093E90001
:1058E000CF910895991B79E004C0991F961708F08D
:1058F000961B881F7A95C9F780950895AA1BBB1B34
:1059000051E107C0AA1FBB1FA617B70710F0A61BBF
:10591000B70B881F991F5A95A9F780959095BC01E0
:10592000CD01089597FB072E16F4009407D077FD5C
:1059300009D00E947E2C07FC05D03EF490958195FD
:105940009F4F0895709561957F4F0895EE0FFF1F4B
:105950000590F491E02D0994F999FECF92BD81BD97
:10596000F89A992780B50895A6E1B0E044E050E0A8
:105970000C94E52CA8E1B0E042E050E00C94E52C5A
:10598000262FF999FECF92BD81BDF89A019700B4F8
:10599000021631F020BD0FB6F894FA9AF99A0FBEAC
:1059A00008950396272F0E94C12C0E94C02C252FFA
:1059B0000E94C12C242F0C94C12C0196272F0E94E9
:1059C000C12C0C94C02CDC01CB01FC01F999FECF59
:1059D00006C0F2BDE1BDF89A319600B40D92415077
:0A59E0005040B8F70895F894FFCF87
:1059EA0005FFC301DD24AC25E0247825442501F018
:1059FA00F1C6676637943130353497963390919271
:105A0A009395403622393D0E070EE50DAC0D380D43
:065A1A00510D6A0D8A0D1A
:00000001FF
