:100000000C9429070C9470070C9470070C947007DB
:100010000C9470070C9470070C9470070C94700784
:100020000C9470070C9470070C94CB290C949D2AA7
:100030000C944A210C9470070C9470070C94700770
:100040000C9470070C9470070C9470070C94700754
:100050000C9470070C94BE210C9470070C947007DC
:100060000C9470070C9470070C9470070C94700734
:100070000C9470070C9470070C9470070C94700724
:100080000C9446140C9470070C9470070C94700731
:100090000C9470070C9470070C9470070C94700704
:1000A0000C9470070C9470070C947007E208E40835
:1000B000EF08E608E808EA08EC08EE08F108F3089B
:1000C000F5080009F708F908FB08FD08FF08020910
:1000D0009F179F17D217D21711187C197C197C19FA
:1000E00031187C19E118E118481951197C19761951
:1000F000EE18EE18EE18EE18EE18EE18EE18EE18D0
:10010000EE18EE18EE18EE18EE18EE18EE18EE18BF
:10011000FE180C1913191A192419F519F519071ACB
:10012000071AFE19071A071A071AF519F519031AFB
:10013000071A071A031A0A2B2C2B1A2C2C2B1A2CF1
:10014000712B942B1A2CE92BFC2B68747470733A66
:100150002F2F00687474703A2F2F006769746875C8
:10016000622E636F6D0040676D61696C2E636F6D09
:100170000000F000201E001F0020002100220023AC
:100180000024002500260027002D002E002A002B29
:100190000014001A000800150017001C0018000CBD
:1001A00000120013002F00300031002A61040016F5
:1001B00000070009000A000B000D000E000F0033BD
:1001C00000340000002861E10000001D001B000653
:1001D000001900050011001000360037003800003B
:1001E000005262E000E200E300000000002C00008A
:1001F000000000000000000151506851644F61355B
:10020000003A003B003C003D003E003F0040004102
:100210000042004300440045004C00010001000181
:100220000001000030013002300330490001004677
:100230000047004800010001000100010001000129
:1002400000010001000100010001004A004B000014
:100250000001000100000001006500010001000133
:1002600000AA00A900A8004D004E000000010001F6
:10027000000100010000000000010000000000007B
:1002800000000001000100010001000A4445425540
:10029000473A20656E61626C65642E0A00000000BA
:1002A00000000000002A2B280000000000000000D1
:1002B000000000000000000029000000002C1E3497
:1002C00020212224342627252E362D3738271E1F9D
:1002D000202122232425263333362E37381F0405C8
:1002E000060708090A0B0C0D0E0F10111213141536
:1002F000161718191A1B1C1D2F3130232D35040514
:10030000060708090A0B0C0D0E0F10111213141515
:10031000161718191A1B1C1D2F3130354C00000000
:1003200000000000000000000000000000000000CD
:1003300000000000000000000000000000000101BB
:1003400001010101000101010100000000000000A5
:100350000000000000000001000100010101010196
:10036000010101010101010101010101010101017D
:100370000101010101010101000000010100000073
:10038000000000000000000000000000000000006D
:10039000000000000000000001010101000A00252A
:1003A00030313662003A200025303258000A722F70
:1003B00063203031323334353637383941424344A3
:1003C00045460A000A002530325800626F756E6398
:1003D00065213A200054494D4552332064697361C8
:1003E000626C65642E0A0054494D45523320656E97
:1003F00061626C65642E0A007267626C696768747A
:100400002073657420687376205B454550524F4DCC
:100410005D3A2025752C25752C25750A00726762BA
:100420006C6967687420746F67676C653A207267DF
:10043000626C696768745F636F6E6669672E656E6C
:1004400061626C65203D2025750A007267626C69E7
:10045000676874206D6F64653A2025750A007267BD
:10046000626C696768745F696E6974207267626C38
:10047000696768745F636F6E6669672E6D6F646528
:10048000203D20302E2057726974652064656661B6
:10049000756C742076616C75657320746F204545AA
:1004A00050524F4D2E0A007267626C696768745F24
:1004B000696E6974206565636F6E6669672069732C
:1004C000206E6F7420656E61626C65642E0A007226
:1004D00067626C696768745F696E697420737461C0
:1004E0007274210A007267626C696768745F696E72
:1004F00069742063616C6C65642E0A007267626CBB
:10050000696768745F636F6E6669672E76616C20D9
:100510003D2025640A007267626C696768745F63D6
:100520006F6E6669672E736174203D2025640A0032
:100530007267626C696768745F636F6E6669672E65
:10054000687565203D2025640A007267686C6967DC
:1005500068745F636F6E6669672E6D6F6465203DBA
:100560002025640A007267626C696768745F636F54
:100570006E6669672E656E61626C65203D2025643C
:100580000A007267626C696768745F636F6E6669A0
:1005900067206570726F6D0A006565636F6E6669CE
:1005A000675F7570646174655F7267626C696768C4
:1005B000745F64656661756C740A00643214643239
:1005C00014783C1E1E140A050000000001010102FF
:1005D00002030405050607090A0B0C0E0F1112147D
:1005E0001517191B1D1F212325282A2C2F313436BE
:1005F000393B3E414346494C4F5255585A5D616420
:10060000676A6D707376797C7F8386898C8F92950B
:10061000989B9EA2A5A7AAADB0B3B6B9BCBEC1C4F3
:10062000C6C9CBCED0D3D5D7DADCDEE0E2E4E6E84B
:10063000EAEBEDEEF0F1F3F4F5F6F8F9FAFAFBFC7B
:10064000FDFDFEFEFEFFFFFFFFFFFFFFFEFEFEFDC6
:10065000FDFCFBFAFAF9F8F6F5F4F3F1F0EEEDEB48
:10066000EAE8E6E4E2E0DEDCDAD7D5D3D0CECBC9E7
:10067000C6C4C1BEBCB9B6B3B0ADAAA7A5A29E9B65
:100680009895928F8C898683807C797673706D6A59
:100690006764615D5A5855524F4C494643413E3B51
:1006A000393634312F2C2A282523211F1D1B1917D9
:1006B000151412110F0E0C0B0A0907060505040389
:1006C0000202010101000000000000000001010120
:1006D00001010101010102020202020202020203FF
:1006E00003030303030303040404040404050505CE
:1006F000050506060606060707070708080808098D
:1007000009090A0A0A0A0B0B0B0C0C0C0D0D0D0E35
:100710000E0F0F0F101011111112121313141415C4
:100720001516161717181819191A1A1B1C1C1D1D37
:100730001E1F1F202021222223242525262727288B
:10074000292A2B2B2C2D2E2F2F30313233343536B6
:10075000363738393A3B3C3D3E3F404142434446C0
:100760004748494A4B4C4D4F505152535556575894
:100770005A5B5C5E5F606263646667696A6C6D6E3B
:10078000707173747678797B7C7E808183848688AF
:100790008A8B8D8F91929496989A9B9D9FA1A3A5E9
:1007A000A7A9ABADAFB1B3B5B7B9BBBDBFC1C4C6E7
:1007B000C8CACCCFD1D3D6D8DADCDFE1E4E6E8EBA7
:1007C000EDF0F2F5F7FAFCFF0A0025303258200070
:1007D0006B6579626F6172645F7265706F72743A93
:1007E00020000A0025303258006B6579626F617213
:1007F000645F7365745F6C65643A200064656C5F68
:100800006B65795F6269743A2063616E2774206456
:10081000656C3A20253032580A006164645F6B656C
:10082000795F6269743A2063616E27742061646441
:100830003A20253032580A003F00433E20004C2524
:10084000640A0074696D65725F7265616433322891
:10085000293A202530346C580A006B65796D617037
:100860005F636F6E6669672E6E6B726F3A202558F4
:100870000A006B6579626F6172645F69646C653AE6
:100880002025580A006B6579626F6172645F70722F
:100890006F746F636F6C3A2025580A00686F737429
:1008A0005F6B6579626F6172645F6C656473282940
:1008B0003A2025580A000A092D2053746174757373
:1008C000202D0A004743433A20342E392E3320414D
:1008D00056522D4C4942433A20322E302E30204180
:1008E00056525F415243483A20617672350A004FB2
:1008F0005054494F4E533A204C5546412045585488
:1009000052414B455920434F4E534F4C4520434F86
:100910004D4D414E44204E4B524F20343039360A13
:10092000004255494C443A2022706C616E636B2D35
:10093000342E312D3232352D673934336237662209
:10094000202832323A30303A3532204E6F7620202D
:10095000332032303136290A005649443A20307863
:100960004330443028534154414E2F4F434F444F5E
:1009700029205049443A20307836363630284748C6
:1009800036302072657643484E29205645523A202B
:100990003078303030310A00444553433A20514DCD
:1009A0004B206B6579626F617264206669726D7746
:1009B00061726520666F7220536174616E204748D2
:1009C00036302077697468205753323831322073BB
:1009D0007570706F72740A000A092D205665727363
:1009E000696F6E202D0A000A092D20436F6E736F08
:1009F0006C65202D0A4553432F713A09717569744E
:100A00000A000A092D204D61676963202D0A443AC6
:100A1000094465627567204D65737361676520548D
:100A20006F67676C650A583A094D6174726978207E
:100A30004465627567204D6F646520546F67676C0D
:100A400065202D2053686F77206B65797072657310
:100A500073657320696E206D6174726978206772A6
:100A600069640A4B3A094B6579626F61726420448C
:100A70006562756720546F67676C65202D20536829
:100A80006F77206B65797072657373207265706F14
:100A900072740A4D3A094465627567204D6F75732B
:100AA0006520546F67676C650A563A09566572731C
:100AB000696F6E0A533A095374617475730A433A45
:100AC00009416374697661746520436F6E736F6C5E
:100AD00065204D6F64650A46312D4631303A095321
:100AE000776974636820746F204C61796572203077
:100AF0002D392028463130203D204C30290A302D18
:100B0000393A0953776974636820746F204C6179AE
:100B1000657220302D390A4553433A095377697479
:100B2000636820746F204C617965722030202861E1
:100B30006C7465726E617465206B65792031290A69
:100B400047524156453A0953776974636820746F78
:100B5000204C6179657220302028616C7465726E5A
:100B6000617465206B65792032290A5041555345DF
:100B70003A094A756D7020746F20426F6F746C6F04
:100B80006164657220285265736574290A4E3A09BA
:100B90004E4B524F20546F67676C650A003F004E02
:100BA0004B524F3A206F66660A004E4B524F3A2026
:100BB0006F6E0A000A6D6F7573653A206F66660A7C
:100BC000000A6D6F7573653A206F6E0A000A6B65D7
:100BD00079626F6172643A206F66660A000A6B651B
:100BE00079626F6172643A206F6E0A000A6D6174F7
:100BF0007269783A206F66660A000A6D61747269DC
:100C0000783A206F6E0A000A64656275673A206F51
:100C100066660A000A64656275673A206F6E0A00AC
:100C20000A0A4A756D70696E6720746F20626F6F73
:100C3000746C6F616465722E2E2E2000433E20007E
:100C40006261636B6C6967687420737465703A20C5
:100C500025750A006261636B6C6967687420746F44
:100C600067676C653A2025750A006261636B6C6981
:100C70006768742064656372656173653A202575E1
:100C80000A006261636B6C6967687420696E6372E5
:100C9000656173653A2025750A005B735D004B65DD
:100CA00079626F6172642073746172742E0A005BE2
:100CB000575D005B535D005B525D005B445D005B14
:100CC000435D0018034700480036003000200072E2
:100CD0000065007600430048004E000000180353F2
:100CE000004100540041004E002F004F0043004FD0
:100CF0000044004F000000040309040902740004CA
:100D00000100A0FA090400000103010100092111FA
:100D10000100012240000705810308000A090401BF
:100D20000001030000000921110100012236000723
:100D300005820308000A09040200020300000009FA
:100D40002111010001222200070583032000010771
:100D5000050303200001090403000103000000094A
:100D6000211101000122390007058403200001122E
:100D700001100100000008D0C060660100010200FF
:100D80000105010906A101050719E029E71500255C
:100D90000195087501810205081901290595057558
:100DA0000191029501750391010507190029F715B5
:100DB00000250195F875018102C00631FF0974A173
:100DC000010975150026FF00952075088102097636
:100DD000150026FF00952075089102C005010980C5
:100DE000A101850216810026B7001A81002AB700EA
:100DF000751095018100C0050C0901A1018503163C
:100E00000100269C021A01002A9C0275109501819E
:100E100000C005010906A101050719E029E7150031
:100E20002501950875018102950175088101050864
:100E30001901290595057501910295017503910127
:100E40000507190029FF150026FF00950675088182
:100E500000C011241FBECFEFDAE0DEBFCDBF04B665
:100E600003FE27C08091420290914302A091440268
:100E7000B09145028730904BA740B04BD1F410920F
:100E8000420210924302109244021092450214BE94
:100E900084B7877F84BF0FB6F894A89580916000CF
:100EA000886180936000109260000FBEE0E0F8E37C
:100EB000099511E0A0E0B1E0E0EAF9E502C0059093
:100EC0000D92A633B107D9F712E0A6E3B1E001C055
:100ED0001D92A234B107E1F70E9406270C94CE2C94
:100EE0000C940000FF93EF93E0913601F0913701ED
:100EF000309709F00995EF91FF910895FC018591D4
:100F0000803011F0EFDFFBCF0895FF27E0E230E201
:100F100047FF0CC0419597FF09C0EDE260957095C1
:100F200080959095611D711D811D911D27FF02C047
:100F3000219530E350E2AA27660F771F881F991F7B
:100F4000AA1FA41710F0A41B63955A95A9F7AA30FD
:100F500008F0A95FA05DAF93F39561157105810558
:100F6000910541F7ED3211F4EF93F395F21718F470
:100F70003F93F395FBCF8F91B5DFFA95E1F7089595
:100F8000E991F9918591803021F0853219F0AADF3D
:100F9000F9CF089520E0E89455915532C1F35033CC
:100FA00011F4689455915A3348F4505390F3220F3A
:100FB000022E220F220F200D250FF4CF0EF42195C3
:100FC00089919991533619F3533729F1533559F1D2
:100FD000BC0188279927E8945C3621F4899199917E
:100FE00068945591543639F446EF7EF077FF0DC082
:100FF0008FEF9FEF0AC055374AE039F0583540E18E
:1010000021F0523642E009F00895FF93EF937DDF1F
:10101000EF91FF91B7CFFF93EF93FC018191803067
:10102000B9F360DFFBCFFF93EF9368DFF1CFDF937E
:10103000CF93CDB7DEB72596A3DFCF91DF9108958B
:101040000C94DE0C229A08950E94DD0C0C94220868
:1010500081FF02C02A9808952A9A0895CF93DF93BA
:1010600061111CC0EC010E94FD1F82728093380147
:101070009A81992341F0882311F085E301C089E228
:101080000E94551F07C0882311F085E301C089E243
:101090000E94A81FDF91CF910C944720DF91CF9140
:1010A0000895FC01613061F028F0623079F063301E
:1010B00099F019C082818823B1F086E691E011C0D1
:1010C0008281882381F08BE591E00BC082818823A7
:1010D00051F083E591E005C08281882321F08AE404
:1010E00091E00E94C10980E090E0089581E00895B8
:1010F00081E008950C9478080E94E3192FEF84E3AF
:101100009CE0215080409040E1F700C000000C942A
:10111000E3210F931F93CF93DF938C01FC01C081D8
:10112000D181CE010E94D61EBE010E94DD0BEC01D2
:10113000B8010E947A08882309F41DC1B801CE01C4
:101140000E946D0C882309F416C1C633F0E7DF074F
:1011500041F4F8018281882309F40DC10E945810DE
:101160000AC1C73380E7D80708F09DC0C53190E7B2
:10117000D90708F081C0C230E0E7DE0708F452C0AA
:10118000F8018281882309F459C00E94D12081117D
:1011900002C00E94AB200E94E42090E090933302B2
:1011A00080933202FE01E350F047E231F10530F462
:1011B000EA5AFF4F809132020C94812C80913202C6
:1011C000816027C0826025C0846023C0806121C007
:1011D00080621FC080641DC080681BC084608860FE
:1011E00018C08E7F16C08D7F14C08B7F12C08F7E7B
:1011F00010C08F7D0EC08F7B0CC08F770AC08B7F95
:10120000877F07C087FB222720F991E0922790FB78
:1012100087F980933202809132020E94E8200E9476
:10122000E319A9C0C115F0E7DF0779F0C130D04755
:10123000A1F081E08093390180933A01C801DF91E8
:10124000CF911F910F910C947608F8018281882329
:1012500009F491C00E947C088EC0F8018281882325
:1012600009F489C08BE892E00E947E078091E60134
:1012700081608093E6017FC0C43390E7D90741F4D1
:10128000F8018281882309F476C00E94EC1173C0B2
:10129000C533D04771F6F8018281882309F46BC009
:1012A0000E94E21168C0CA33F0E7DF0741F4F80199
:1012B0008281882309F45FC00E94C4105CC0CB33D4
:1012C00080E7D807D8F4F8018281C833F0E7DF0758
:1012D00031F4882309F44FC00E948F104CC0C933E9
:1012E000D04730F4882309F446C00E94701043C0F0
:1012F000882309F440C00E94AA103DC0CC33E0E727
:10130000DE07A1F4F8018281882321F010923901CF
:1013100082E01BC080913901811106C086E20E94E3
:10132000381686E20E940B1782E01DC0CC33F0E72E
:10133000DF07E0F0CD33D04709F07BCFF8018281A1
:10134000882331F010923A0180E20E945A1713C0AC
:1013500080913A01811106C087E20E94381687E227
:101360000E940B1780E20E94611705C0F80182817C
:1013700081110E94DF1080E0DF91CF911F910F91CA
:1013800008950F931F93CF938C01F801249122238A
:10139000F9F030E0F901E356FD4FC491F901E35E45
:1013A000FC4F2491222359F081EE0E9438168C2F95
:1013B0000E9438168C2F0E940B1781EE04C08C2FD0
:1013C0000E9438168C2F0E940B170F5F1F4FDDCF26
:1013D000CF911F910F9108950C942008269A2E9872
:1013E0008FEF9FEF909387008093860082E2809337
:1013F000800089E1809381000C94D5230E94EE093E
:101400000C942408282F2E9880918000211108C068
:101410008F7D8093800010928B0010928A00089537
:10142000806280938000243019F48FEF9FEF0FC00B
:1014300084E090E0821B9109880F991F2FEF3FEF06
:10144000A90102C0569547958A95E2F7CA01909383
:101450008B0080938A0008950C9428082EE0729FD8
:10146000F001112436E4839FE00DF11D1124E60FF5
:10147000F11DEE0FFF1FED58FE4F859194910E94D4
:10148000EF0B811540E5940708F047C0811520E473
:10149000920708F01BC1883E910520F5803E91051A
:1014A00008F08AC1883A910578F4853A910508F0E8
:1014B000A5C08130910509F47FC108F436C184309C
:1014C000910508F079C131C18D3B910508F4A1C0A7
:1014D000803C910508F429C1FC01EE0FFF1FEF507D
:1014E000F040EEC0811530E2930758F4811541E0D9
:1014F000940708F061C1803F910508F416C190651A
:101500000895811520E3920708F0DDC0FC01FF700B
:10151000EE0FFF1FEF58FE4FD3C0811535E593073F
:1015200008F043C0811544E5940708F0E6C0811532
:1015300022E5920708F5811531E5930708F0C9C047
:10154000482F437021E030E002C0220F331F4A953C
:10155000E2F73C68AC0164E0569547956A95E1F77F
:101560004370342B8F708695869540E2849FC0012E
:101570001124822B932B0895282F26952695AC01B4
:10158000437055278115934508F0A8C080E2289F35
:101590009001112481E090E002C0880F991F4A95C4
:1015A000E2F7822B932B9C680895803340E79407E1
:1015B00090F4803220E7920708F0AAC0811536E542
:1015C000930708F49FC09C0130562115304108F064
:1015D000ACC09F709BC0813320E7920709F49FC085
:1015E00008F49AC0823340E7940709F49BC0833320
:1015F000904709F09AC080E093ED0895853A9105EF
:1016000009F496C0863A910509F095C082E890E405
:101610000895883A910509F491C0893A910509F431
:1016200090C08A3A910509F48FC08B3A910509F46C
:101630008EC08C3A910509F48DC08B3B910509F45D
:101640008CC08C3B910509F48BC08D3A910509F44F
:101650008AC0803B910509F489C08E3A910509F44E
:1016600088C08F3A910509F487C0813B910509F440
:1016700086C0823B910509F485C0833B910509F43E
:1016800084C0843B910509F483C0853B910509F42E
:1016900082C0863B910509F481C0873B910509F41E
:1016A00080C0883B910509F47FC0893B910509F40E
:1016B0007EC08A3B910509F47DC080E094E40895E2
:1016C0008591949108959927906C08959F70906AE0
:1016D0000895982F8827816F906A089590E2299F36
:1016E0009001112481E090E002C0880F991F4A9573
:1016F000E2F7822B932B9A680895982F8827846F9E
:10170000906A08958F719927982F8827906208957D
:1017100080529047946D089580E091ED089580E0A7
:1017200090ED089580E092ED089580E090E00895B6
:1017300081E890E4089583E890E4089582EE94E4CB
:10174000089589EE94E408958AEE94E4089585EB73
:1017500094E4089586EB94E4089583EB94E408956B
:1017600084EB94E4089587EB94E408958CEC94E47E
:1017700008958DEC94E4089583E895E408958AE84B
:1017800095E4089582E995E4089584E995E408953F
:1017900081E296E4089583E296E4089584E296E473
:1017A000089585E296E4089586E296E4089587E236
:1017B00096E408958AE296E408959EE0799FF00108
:1017C000112496E4899FE00DF11D1124E60FF11D0F
:1017D000EE0FFF1FED58FE4F8591949108958238CA
:1017E000910549F1B0F48133910509F458C048F4EA
:1017F0008932910509F44EC08A32910509F454C02A
:1018000008958533910509F440C08933910599F015
:101810000895833E910529F138F4803E910591F0B9
:10182000823E9105A1F00895863E9105F9F0873E2C
:10183000910531F108952091320220FD3AC021FD39
:1018400038C008958091320280FD35C032C0809149
:10185000320282FF32C08091320284FD30C083EEBA
:1018600039C08091320282FD28C0F5CF80913202CA
:1018700083FF27C08091320284FD21C087EE2AC0F9
:101880008091320283FD1DC0F5CF8091320285FD2B
:101890001AC01BC08091320285FD17C014C0809110
:1018A000320286FD14C015C08091320286FD11C03F
:1018B0000EC080EE0FC089E30DC082EE0BC080E049
:1018C00009C086EE07C089E205C085E303C08AE24D
:1018D00001C081E390E0089508950F931F93CF9383
:1018E000FB012281211102C0C1E041C08C01C091E5
:1018F0004801C11125C085319047B1F70E946C0C99
:1019000081E0809348010E947C219093470180935D
:10191000460110923B0110923D0110923C01109241
:101920003F0110923E01109241011092400110922D
:10193000430110924201109245011092440117C0D8
:1019400080914601909147010E949421883C910525
:1019500058F690913B01E92FF0E0EE0FFF1FE45C99
:10196000FE4F118300839F5F90933B01C0E08C2F5B
:10197000CF911F910F910895ADE1B1E041E050E0AA
:101980008D91E82FF0E094E0F595E7959A95E1F7D1
:1019900021A18F70BA0102C0660F771F8A95E2F706
:1019A000CB01962F9095922391A392A1892B82A38C
:1019B00071E0A232B70721F708950895089585B719
:1019C000806885BF85B7806885BF0E94BC0CAFE08A
:1019D000B1E041E050E08D91E82FF0E094E0F59522
:1019E000E7959A95E1F721A18F70BA0102C0660FC1
:1019F000771F8A95E2F7CB01962F9095922391A3BA
:101A000092A1892B82A371E0AD31B70721F7E3E5FD
:101A1000F1E0A9E4B1E0119211921D921D9281E0D2
:101A2000ED35F807C1F70C94FE098F929F92AF92A3
:101A3000BF92CF92DF92EF92FF920F931F93CF93BB
:101A4000DF9309E411E07801CDE1D1E0CC24C39427
:101A5000D12C35E0832E46ECA42E43E0B42E9C2EF0
:101A6000980C8991E82FF0E094E0F595E7959A9528
:101A7000E1F721A18F70A60102C0440F551F8A957E
:101A8000E2F7CA01922F982B91A392A18095892306
:101A900082A350EA5A95F1F7EFE0F1E020E030E060
:101AA00040E050E06191A62FB0E084E0B595A795A5
:101AB0008A95E1F790968C9190E06F7002C09595B1
:101AC00087956A95E2F780FD08C0C601042E02C022
:101AD000880F991F0A94E2F702C080E090E0282B5B
:101AE000392B4F5F5F4F4E305105E1F6D7018D9195
:101AF0009D917D018217930751F1FD01329731834A
:101B0000208380910001882301F18091E60180FF0C
:101B100004C08BEC93E00E947E078091E60180FF79
:101B20000CC0809100011F928F93BF92AF920E94D0
:101B300017080F900F900F900F908091E60180FF93
:101B400004C084EC93E00E947E07809200010E9412
:101B5000BC0C9C1286CF809100018823C1F081507B
:101B600080930001882339F0EFE9FFE03197F1F726
:101B700000C000000CC0E3E5F1E0D8018D919D911B
:101B80008D0181939193B1E003351B07B1F70E945A
:101B9000EC0981E0DF91CF911F910F91FF90EF90C1
:101BA000DF90CF90BF90AF909F908F900895E82FD7
:101BB000F0E0EE0FFF1FED5AFE4F808191810895F6
:101BC000CF92DF92EF92FF920F931F93CF93DF9309
:101BD0008DEA93E00E947E0783E5E82E81E0F82EEF
:101BE000C0E0D0E098EAC92E93E0D92E0FE913E0C7
:101BF000DF93CF93DF92CF920E94170885EA93E09C
:101C00000E947E07F701819191917F010E949120AE
:101C10009F938F931F930F930E9417088DE993E072
:101C20000E947E0721968DB79EB708960FB6F8944E
:101C30009EBF0FBE8DBFC530D105D1F6DF91CF91CC
:101C40001F910F91FF90EF90DF90CF9008952EB1EC
:101C5000342F309523233EB1432B3FB7F894FC013A
:101C6000680F791FE617F70789F0819198E04EB960
:101C7000000000C087FF2EB9880F000000C000C020
:101C800000C02EB900C09A9591F7ECCF3FBF0895E0
:101C90002DB1242B2DB99B01220F331F620F731F0F
:101CA0000E94270E87EC90E00197F1F700C000003A
:101CB000089544E00C94480EEF92FF920F931F9307
:101CC000CF93DF93E901662309F44BC0242F30E062
:101CD000EFEFF0E0E61BF109B901E69F9001E79F05
:101CE000300DF69F300D1124232F8B01031B11099A
:101CF0005CE3E52EF12CB7010E94592CFB01BC01DD
:101D0000069FC001079F900D169F900D1124B701EB
:101D10000E94592CE230F105B1F040F4309779F08F
:101D2000319711F5832F242F461B21C0E430F10594
:101D3000A1F068F03597C1F4842F861B18C0832F5B
:101D4000262F230F14C0862F830FE42F03C0E42F08
:101D5000E61B842F432F2E2F0AC0842F462F430FBC
:101D600006C0842F242F03C080E020E040E0E42F51
:101D7000F0E0E853F94F4491E22FF0E0E853F94FD7
:101D80009491E82FF0E0E853F94FE4914983988368
:101D9000EA83DF91CF911F910F91FF90EF9008950B
:101DA00088E090E00C948F2CAB01BC0188E090E0BF
:101DB0000C94AC2C8091E60180FF08C089E995E085
:101DC0009F938F930E9417080F900F9083E080934A
:101DD000120280911302807884668F7780931302B9
:101DE0008CEC809314028093150260911202709122
:101DF000130280911402909115020C94D40E8091DC
:101E0000E60180FF08C082E895E09F938F930E94CF
:101E100017080F900F908091E60180FF0FC080910E
:101E2000120281701F928F9385E695E09F938F93A6
:101E30000E9417080F900F900F900F908091E6016D
:101E400080FF10C08091120286958F731F928F932E
:101E50008AE495E09F938F930E9417080F900F904C
:101E60000F900F908091E60180FF19C080911202BF
:101E7000881F8827881F90911302292F220F822BF9
:101E800097FB992790F99F938F9380E395E09F9319
:101E90008F930E9417080F900F900F900F908091D2
:101EA000E60180FF0EC0809114021F928F9386E19D
:101EB00095E09F938F930E9417080F900F900F90BB
:101EC0000F908091E60180FF0EC0809115021F9255
:101ED0008F938CEF94E09F938F930E9417080F903D
:101EE0000F900F900F9008958091120280FF06C00E
:101EF00068E070E08AE192E00C94590E80E090E096
:101F0000FC01E65EFD4F1182108212820396883139
:101F10009105B1F7EDCF20E030E0F901E65EFD4F2D
:101F20008183608342832D5F3F4F28313105A9F7BC
:101F30000C94740FEF92FF920F931F93CF93DF9344
:101F400000D01F92CDB7DEB700911202109113029C
:101F5000209114023091150200931602109317027B
:101F600020931802309319022091120220FF21C001
:101F7000042FF62EE92E182F9E012F5F3F4F0E944F
:101F80005C0E8091160210FB87F98093160216955D
:101F9000809117028078182BE0FA17F91093170236
:101FA000F0921802009319024B8169818A810E9484
:101FB0008B0F0F900F900F90DF91CF911F910F918A
:101FC000FF90EF9008950F931F93CF93DF93EC0151
:101FD000062F142F9091120290FF65C0892F8E77E3
:101FE000823021F4CE010E949A0F1BC0892F869562
:101FF0008F732EE3280F2F73243018F410911502DD
:1020000010C0865C8F73893060F4C92FCC1FCC2739
:10201000CC1FD09113028D2F880FC82BD7FBDD2743
:10202000D0F980911202C0FB87F980931202C69505
:10203000809113028078C82BD0FBC7F9C09313029C
:102040000093140210931502609112027091130212
:1020500080911402909115020E94D40E8091150275
:102060001F928F93809114021F928F93809112027E
:10207000881F8827881F90911302292F220F822BF7
:1020800097FB992790F99F938F9388EF93E09F9305
:102090008F930E9417088DB79EB708960FB6F894D5
:1020A0009EBF0FBE8DBFDF91CF911F910F910895FD
:1020B000E2E1F2E02081221F2227221F3091130249
:1020C000432F440F842F822B37FB992790F90A96D0
:1020D00068E671E00E946D2C438162810C94E30FED
:1020E00020911202221F2227221F30911302432F18
:1020F000440F842F822B37FB992790F98A30910562
:102100001CF4825A9E4F01C00A9768E671E00E9453
:102110006D2C40911502609114020C94E30F6091B4
:102120001402862F90E08F3E910514F46F5E01C07B
:102130006FEF80911202881F8827881F90911302E9
:10214000292F220F97FB992790F940911502822B96
:102150000C94E30F60911402862F90E0419714F0E5
:10216000615101C060E080911202881F8827881F9A
:1021700090911302292F220F97FB992790F94091F4
:102180001502822B0C94E30F40911502842F90E0EE
:102190008F3E910514F44F5E01C04FEF8091120203
:1021A000881F8827881F90911302292F220F97FBE1
:1021B000992790F960911402822B0C94E30F4091BF
:1021C0001502842F90E0419714F0415101C040E086
:1021D00080911202881F8827881F90911302292F4F
:1021E000220F97FB992790F960911402822B0C948F
:1021F000E30F80916E0181110FC081E080936E0129
:1022000089E0809391008FB7F89493E090939900C0
:1022100090ED909398008FBF089580917100826037
:10222000809371008091E60180FF08C087EE93E003
:102230009F938F930E9417080F900F90089580919D
:1022400071008D7F809371008091E60180FF08C04E
:1022500085ED93E09F938F930E9417080F900F9046
:1022600008959091120290FF4BC09178811102C0A5
:10227000926007C0883110F09E6203C08F73880F90
:10228000982B909312026091120270911302809128
:102290001402909115020E94D40E8091120286952C
:1022A0008F731F928F938BE494E09F938F930E9480
:1022B000170880911202982F9E770F900F900F9021
:1022C0000F90923019F40E941F1107C08695825C0E
:1022D0008F73863110F40E940D1180911202881FB5
:1022E0008827881F90911302292F220F97FB992787
:1022F00090F94091150260911402822B0C94E30F27
:1023000008958091E60181608093E60185EE94E076
:102310009F938F930E94170881E080936F018091B3
:10232000E6010F900F9080FF08C08FEC94E09F9320
:102330008F930E9417080F900F900E94D120811157
:1023400010C08091E60180FF08C087EA94E09F9367
:102350008F930E9417080F900F900E94AB200E944D
:10236000DA0E0E94D00E60931202709313028093D3
:102370001402909315026E77C1F48091E60180FFFC
:1023800008C08EE594E09F938F930E9417080F90EA
:102390000F900E94DA0E0E94D00E6093120270938A
:1023A000130280931402909315020E94FF0E0E9464
:1023B000F9108091120280FF04C086958F730C94EF
:1023C000311108958091120286958F738F5F883145
:1023D00008F081E00C94311180911202982F9095B1
:1023E00090FB80F9809312026091120270911302A7
:1023F00080911402909115020E94D40E80911202D5
:1024000081701F928F938DE194E09F938F930E9430
:102410001708809112020F900F900F900F9080FF7D
:1024200004C086958F730C9431110E941F112FEFF9
:1024300080E792E0215080409040E1F700C000002A
:102440000C94740FCF93C82F80916C0190916D0103
:102450000E949421EC2FF0E0EC53FA4FE491F0E06D
:102460008E179F0718F10E947C2190936D01809335
:102470006C01E0916B01F0E0E853FA4F44918091D8
:102480001202881F8827881F90911302292F220F7C
:1024900097FB992790F960911402822B0E949A0F62
:1024A00080916B0190E0019680936B01CF9108952C
:1024B000CF93C82F8091690190916A010E94942165
:1024C000EC2FF0E0EF53FA4FE491F0E08E179F0706
:1024D000E8F00E947C2190936A0180936901409109
:1024E00015026091140280916701909168010E9429
:1024F0009A0F8091670190916801019668E671E0FA
:102500000E94592C9093680180936701CF910895A0
:10251000CF92DF92FF920F931F93CF93DF93F82E0A
:1025200080916501909166010E949421EF2DE695BE
:10253000F0E0EF53FA4FE491F0E08E179F07E8F1D7
:102540000E947C2190936601809365010AE112E06C
:10255000C0E0D0E088E6C82EDD24D39480916301EA
:10256000909164018C0F9D1FB6010E94592C980117
:1025700040911502609114020E945C0EAD960D5FB1
:102580001F4FC83681E0D80749F70E94740F209189
:10259000630130916401F0FE0AC0C9010196BE01D9
:1025A0000E94592C909364018093630106C02150CE
:1025B00031093093640120936301DF91CF911F9122
:1025C0000F91FF90DF90CF9008958F929F92AF92DE
:1025D000BF92CF92DF92EF92FF920F931F93CF9310
:1025E000DF93C82F80FF03C0DD24DA9402C0DD240E
:1025F000D39480916101909162010E949421C695CB
:10260000EC2FF0E0E254FA4FE491F0E08E179F07D0
:1026100008F466C00E947C2190936201809361015E
:102620009AE1E92E92E0F92E0CE112E0C0E0D0E050
:1026300027E0822E912CF80131971082F701108249
:10264000F801108287E0A82EB12CC12C8091600186
:102650008C0D87FD885F992787FD9095C817D9074E
:10266000E9F4209115022A9DC0012B9D900D1124A3
:10267000B4010E946D2C462F80911202881F88277A
:10268000881F90911302592F550F97FB992790F9A6
:10269000970160911402852B0E945C0ECD0CF1E035
:1026A000AF1AB10899F6219683E0E80EF11C0D5F90
:1026B0001F4FC830D10509F0BECF0E94740F809122
:1026C000600191E0D91206C0811102C087E006C006
:1026D000815004C090E00196877099278093600133
:1026E000DF91CF911F910F91FF90EF90DF90CF90EE
:1026F000BF90AF909F908F9008959F92AF92BF929E
:10270000CF92DF92EF92FF920F931F93CF93DF93BD
:10271000CDB7DEB768970FB6F894DEBF0FBECDBF5A
:10272000182F80915E0190915F010E949421E12F0A
:10273000F0E0E554FA4FE491F0E08E179F0708F4BB
:1027400093C00E947C2190935F0180935E01CE0133
:1027500001967C015E0193E0A90EB11CC12CD12C25
:102760008701F50131971082F7011082F50110827F
:10277000912C9091010180915D01999E800D112411
:1027800087FD04C088301CF087E001C080E09927F5
:1027900087FD9095C816D906A1F480911202881F72
:1027A0008827881F90911302592F550F97FB99275F
:1027B00090F997014091150260911402852B0E94B7
:1027C0005C0E9394F7E09F12D4CF8FEFC81AD80A0B
:1027D00093E0E90EF11CE3E0AE0EB11CF8E0CF1679
:1027E000D10409F0BECFACE1B2E089E090E0FC0199
:1027F000E770FF279D0121503109AF01440F551F9C
:10280000E40FF51FBF01600F711FFB014181F9014A
:10281000408321503109FB014081F9014083FB01D4
:1028200022812C93019613968131910501F70E9424
:10283000740F9091010180915D01913049F48A3FBC
:102840002CF489EF80935D018FEF08C081500AC09E
:102850008F303CF08EE080935D0181E08093010138
:1028600003C08F5F80935D0168960FB6F894DEBF5A
:102870000FBECDBFDF91CF911F910F91FF90EF90D1
:10288000DF90CF90BF90AF909F9008951F920F92CE
:102890000FB60F9211242F933F934F935F936F9333
:1028A0007F938F939F93AF93BF93EF93FF93809109
:1028B000120286958F739EE3980F9F73943020F4D5
:1028C00082500E94221223C09AE3980F9F73933084
:1028D00020F486500E9458121AC097E3980F9F73F5
:1028E000963020F489500E94881211C091E3980F0D
:1028F0009F73963020F48F500E94E51208C09BE22F
:10290000980F9F73933018F485510E947D13FF91A7
:10291000EF91BF91AF919F918F917F916F915F9157
:102920004F913F912F910F900FBE0F901F901895D0
:1029300090937501809374010895E0917401F09172
:102940007501309721F00190F081E02D099480E02D
:102950000895EF92FF920F931F93CF93DF93E0912F
:102960007401F09175013097B1F18C010280F3810F
:10297000E02D09958091E60182FF2DC080FF04C003
:1029800080ED97E00E947E07E80110E28AECE82ED5
:1029900087E0F82E8091E60180FF0BC088811F92AE
:1029A0008F93FF92EF920E9417080F900F900F9055
:1029B0000F90115021961111EDCF8091E60180FF0B
:1029C0000AC088EC97E0DF91CF911F910F91FF90A3
:1029D000EF900C947E07DF91CF911F910F91FF90A4
:1029E000EF9008952091720130917301821793073F
:1029F00071F09093730180937201E0917401F091F2
:102A00007501309721F00680F781E02D0994089533
:102A100020917001309171018217930771F09093AA
:102A2000710180937001E0917401F091750130970C
:102A300021F00084F185E02D0994089508950C9407
:102A40001E150E9473210E94DF0C0E9405220E9425
:102A5000D5230C948111CF93C82F8091E60182FF7A
:102A60001EC080FF04C089EE97E00E947E0780911F
:102A7000E60180FF0CC01F92CF9384EE97E09F93F6
:102A80008F930E9417080F900F900F900F908091D6
:102A9000E60180FF04C082EE97E00E947E078C2F43
:102AA000CF910C942C0A4F925F927F928F929F92BB
:102AB000AF92BF92CF92DF92EF92FF920F931F934C
:102AC000CF93DF93CDB7DEB72A970FB6F894DEBF6A
:102AD0000FBECDBF0E94150D97E7C92E91E0D92EEC
:102AE00000E010E0AA24A394B12C702E802F0E9445
:102AF000D70D4C01F601419051906F01482659269F
:102B000041145104B1F40F5F1F4F0530110569F7EF
:102B10008FEF89838A831B820E947C218160782FBA
:102B20009D838C8349815A816B818D810E940A1615
:102B30003AC08091E60181FD0E94E00D20E030E086
:102B40007501022E02C0EE0CFF1C0A94E2F7C701C9
:102B500084219521892B09F12E837F828E209F204D
:102B600091E0892809F490E098870E947C21816097
:102B7000782F9A8789874E815F8168858A850E9430
:102B80000A16000F111FF801E958FE4F808191814C
:102B9000E826F926F182E08206C02F5F3F4F2E30F3
:102BA000310571F6B0CF109176010E949D1418176F
:102BB000D9F00E949D14809376012A960FB6F8945E
:102BC000DEBF0FBECDBFDF91CF911F910F91FF9060
:102BD000EF90DF90CF90BF90AF909F908F907F90BD
:102BE0005F904F900C942B152A960FB6F894DEBF89
:102BF0000FBECDBFDF91CF911F910F91FF90EF904E
:102C0000DF90CF90BF90AF909F908F907F905F901C
:102C10004F900895CF93DF93CDB7DEB72B970FB6C4
:102C2000F894DEBF0FBECDBF4F83588769877A8780
:102C30008B87DE01119686E0FD0111928A95E9F7F6
:102C400085E0FE01379601900D928A95E1F7498162
:102C50005A816B817C818D819E810E947B1C2B9689
:102C60000FB6F894DEBF0FBECDBFDF91CF910895B0
:102C7000CF93882309F4CDC0C82F823859F40E941D
:102C80009D1481FDC6C089E30E94551F0E94472004
:102C900089E30CC0833879F40E949D1480FDB9C08B
:102CA00083E50E94551F0E94472083E50E94A81FCC
:102CB000CF910C944720843859F40E949D1482FDD2
:102CC000A8C087E40E94551F0E94472087E4EECFEA
:102CD0008CEF8C0F813A48F48C2F0E94862381114F
:102CE00098C08C2F0E94551FE3CF80E28C0F883054
:102CF00048F4C77081E001C0880FCA95EAF70E94C6
:102D00000020D6CF8BE58C0F833078F4C53A29F0BC
:102D1000C63A31F083E890E005C081E890E002C057
:102D200082E890E0CF910C94F21488E58C0F853105
:102D300008F06FC0C83A61F1C93A69F1CA3A71F155
:102D4000CB3A79F1CC3A81F1CB3B89F1CC3B91F193
:102D5000CD3A99F1C03BA1F1CE3AA9F1CF3AB1F108
:102D6000C13BB9F1C23BC1F1C33BC9F1C43BD1F195
:102D7000C53BD9F1C63BE1F1C73BE9F1C83BF1F1F5
:102D8000C93BF9F1CA3B09F43FC080E090E03EC086
:102D900082EE90E03BC089EE90E038C08AEE90E091
:102DA00035C085EB90E032C086EB90E02FC083EB1E
:102DB00090E02CC084EB90E029C087EB90E026C027
:102DC0008CEC90E023C08DEC90E020C083E891E093
:102DD0001DC08AE891E01AC082E991E017C084E939
:102DE00091E014C081E292E011C083E292E00EC053
:102DF00084E292E00BC085E292E008C086E292E0B5
:102E000005C087E292E002C08AE292E0CF910C9482
:102E10000815CF910895882309F44BC0823859F4DE
:102E20000E949D1481FF45C089E30E94551F0E94A6
:102E3000472089E30CC0833871F40E949D1480FF01
:102E400038C083E50E94551F0E94472083E50E94F9
:102E5000A81F0C944720843859F40E949D1482FFC7
:102E600028C087E40E94551F0E94472087E4EFCFC7
:102E70009CEF980F913A58F390E2980F983050F4E5
:102E8000877091E001C0990F8A95EAF7892F0E9417
:102E90000620DFCF9BE5980F933020F480E090E090
:102EA0000C94F214885A853120F480E090E00C9460
:102EB00008150895882321F00E9400200C944720D3
:102EC0000895882321F00E9406200C94472008953D
:102ED0007F928F929F92AF92BF92CF92DF92EF92AA
:102EE000FF920F931F93CF93DF931F92CDB7DEB75F
:102EF0007C01C62E772EFC01058102950F70128190
:102F000011110E941D200E944E1F882379F0112369
:102F100069F080E28C0D883048F082E00E94371F13
:102F20000E944E1F91E0D82ED92601C0D12CE72D4A
:102F3000E295EF70F0E0E859FF4F0C94812C872D5B
:102F4000807F072D0F70882311F00295007F1123D9
:102F500099F0002309F492C180E28C0D883010F0C2
:102F6000C11004C0802F0E94002003C0802F0E9447
:102F700010200E94472082C18C2D0E940B17002335
:102F800009F4BAC180E28C0D883010F0C11004C081
:102F9000802F0E94062003C0802F0E9416200E94CE
:102FA0004720AAC1872D807F972D9F70803211F412
:102FB000892F03C0892F8295807FCC2021F0F1E0FA
:102FC000CF16A1F01DC0112339F0002319F10130F3
:102FD00009F50E94302090C1002319F0013009F456
:102FE0008BC189830E943320898105C1112321F07F
:102FF000063008F081C10EC0053008F07DC1FBC06D
:10300000112359F0002331F0F701958190FF36C16B
:103010009F7095830E945A176FC1002309F4EBC07B
:1030200033C1872D86958695837090E0009719F0BF
:10303000019761F061C1112321F08C2D972D9370C0
:1030400002C080E090E00E94F21456C1112321F0EA
:103050008C2D972D937002C080E090E00E9408159F
:103060004BC1872D837009F052C0111145C18C2DC1
:10307000829586958770880F880F9C2D9F70892E6A
:10308000912CA12CB12C082E04C0880C991CAA1CD0
:10309000BB1C0A94D2F7C4FE14C00FE010E020E07D
:1030A00030E0B901A80104C0440F551F661F771F07
:1030B0008A95D2F7CB01BA0160957095809590956D
:1030C00003C060E070E0CB01272D26952695237084
:1030D00030E02230310569F02330310589F068296C
:1030E00079298A299B292130310571F00E94C31D5D
:1030F00003C1682979298A299B290E94DF1DFCC008
:103100000E94C31DC501B4010E94A71DF5C0112373
:1031100019F0872D817001C08695882309F4ECC0D1
:103120008C2D829586958770880F880F9C2D9F70B7
:10313000892E912CA12CB12C082E04C0880C991C2E
:10314000AA1CBB1C0A94D2F7C4FE14C00FE010E006
:1031500020E030E0B901A80104C0440F551F661FEC
:10316000771F8A95D2F7CB01BA016095709580954B
:10317000909503C060E070E0CB01272D2695269541
:103180002370422F50E04230510569F04330510521
:1031900089F0682979298A299B294130510571F0E4
:1031A0000E949D1EA9C0682979298A299B290E940D
:1031B000B91EA2C00E949D1EC501B4010E94811EBD
:1031C0009BC08C2D90E0FC01E05EF109E531F1053A
:1031D00008F050C0E858FF4F0C94812C0C2D0F7054
:1031E000872D8F71112321F00E941A1E802F12CF7C
:1031F0000E943B1E802F0E9461177EC0112341F068
:10320000053008F079C0872D8F710E94601E74C050
:10321000063008F071C0F7CF112339F0872D8F7178
:103220000E941A1E69C01123C9F3872D8F710E9455
:103230003B1E62C0112329F0872D8F710E94051E4D
:103240005BC00E94FB1D58C0112351F0172D1F7148
:10325000812F0E941A1E63E0812F0E942E1F4CC0F6
:1032600081E00E94371F023008F446C082E00E94CD
:10327000371F42C0112331F0002381F28C2D0E94B0
:1032800038163AC0002389F28C2D0E940B1734C0E7
:10329000472D4F706C2DC7010E9451080E941F1DC1
:1032A0002BC0111129C0472D4F7050E042305105FD
:1032B000B9F04CF44115510581F041305105E1F46C
:1032C0000E94102419C04330510569F04430510563
:1032D00099F48C2D0E949B240FC00E94E6230CC001
:1032E0000E943F2409C00E94652406C0472D4F70EC
:1032F0006C2DC7010E942E08DD20F9F00E942A1FC4
:1033000080FD1BC0F70112820E94241F0E941A1E1A
:10331000C7010E94AC190E94241F0F90DF91CF912A
:103320001F910F91FF90EF90DF90CF90BF90AF90E3
:103330009F908F907F900C943B1E0F90DF91CF91C8
:103340001F910F91FF90EF90DF90CF90BF90AF90C3
:103350009F908F907F9008950F931F93CF93DF934B
:10336000EC01888199812B813C81232BB9F09F3F0F
:1033700011F48F3F99F0CE010E948908882371F0E3
:10338000688179818A810E94201F8C010E94D51E4C
:103390000E949C1DB801CE010E946817DF91CF9159
:1033A0001F910F9108950E941D200E942D200E94C0
:1033B000EF1F0E94472080E090E00E94F21480E01E
:1033C00090E00C9408150E940D200C94D3190E94D3
:1033D000151FE92FE295EF70F0E03297EE30F1051E
:1033E000B0F4E357FF4F0C94812C803F91F018F418
:1033F000803E68F40EC0843F51F40BC0803E48F01C
:10340000813F29F406C093FB882780F9089580E066
:10341000089581E00895CF93DF9300D000D01F92EC
:10342000CDB7DEB70F900F900F900F900F90DF91F8
:10343000CF910895CF93DF9300D000D000D0CDB7C7
:10344000DEB726960FB6F894DEBF0FBECDBFDF9174
:10345000CF9108951F93CF93DF93C091810116E020
:1034600080918201C81799F0D0E01C9FF0011D9F48
:10347000F00D1124ED57FE4F40815181628173811F
:10348000848195810E941A1A2196C770E9CFDF9135
:10349000CF911F9108954091B3015091B401609173
:1034A000B5017091B6018091B7019091B8010C946B
:1034B0001A1A8091B80182958F7009F054C08091DA
:1034C000B501882309F44FC080918101A091820148
:1034D0006091B3017091B4014091B6015091B70170
:1034E000B6E08A1709F43FC090E041155105C1F1DB
:1034F0007F3F11F46F3FA1F1B89FF001B99FF00D2C
:103500001124ED57FE4F218172132AC020816213CE
:1035100027C02281211124C023813481241735073B
:1035200010F421503109241B350B283C3105C0F41F
:103530002091B8012F7020612093B80126E0289FC8
:10354000F001299FF00D1124E857FE4F80818F7004
:103550008061808383EB91E00E94AC190C942A1A5D
:1035600001968770BECF0895CF92DF92EF92FF92BF
:103570000F931F93CF93DF93CDB7DEB762970FB64C
:10358000F894DEBF0FBECDBF8C0185E0F801DE01EF
:103590001D9601900D928A95E1F7D8014C911196F4
:1035A0005C91119712966C9112971396CD90DC90C6
:1035B00014973091B3017091B4018091B60190914C
:1035C000B701009709F46BC17F3F19F43F3F09F43D
:1035D00066C1E090B501EE2009F4C0C02091B801A9
:1035E000C816D90628F0F601E81BF90BCF0104C074
:1035F000809590958C0D9D1DFF24F394883C91053A
:1036000078F0F12C207F09F0C6C07C2DD98AC88AB9
:1036100089890E940B1A83EB91E00E94AC19B1C01A
:10362000822F807F09F046C0751314C0341312C076
:10363000611110C02F7020612093B8010E944B1AB5
:1036400083EB91E00E94AC198091B801D8011596E6
:103650008C932EC0CD2819F15F3F11F44F3FF9F044
:10366000F62E61111CC0809181012091820136E00B
:10367000821709F45AC090E0389FF001399FF00D8D
:103680001124ED57FE4F7181571306C07081471307
:1036900003C07281711103C001968770E9CFF62EC5
:1036A000662309F418C18091B80181608093B80144
:1036B000F12C11C1751308C0341306C0611104C088
:1036C0008091B801D801C3C04D875E878D859E85E6
:1036D0006A8B0E94E7196A898823E1F16623D1F198
:1036E0002091B801822F82958F7090E0029774F03C
:1036F0008091B3019091B40198878F831986DB86FE
:10370000CA862C87CE0107960E94AC1986E0F80184
:10371000A3EBB1E001900D928A95E1F70E94591A4E
:103720000E944B1AFF24F394D6C04D875E878D8587
:103730009E850E94151F292F22952F7030E0223080
:1037400031050CF0BCC09F7009F0B6C0805E8830B7
:1037500008F4C1C0C8010E94AC19E4CFC816D9064C
:1037600008F453C0F601E81BF90BCF01883C910522
:1037700008F450C0F12C7C2DD98AC88A89890E940E
:103780000B1AE3EBF1E086E0DF011D928A95E9F781
:103790000E944B1AA0C0751314C0341312C06111DB
:1037A00010C08091B801F8018583C8010E94AC194E
:1037B00086E0E3EBF1E0DF011D928A95E9F7FE2C4C
:1037C0008AC04D875E878D859E856A8B0E94E7192A
:1037D0006A89882309F4BECF662309F4BBCF209100
:1037E000B801822F82958F7090E002970CF48ECFF3
:1037F0008091B3019091B4019A8389831B82DD8209
:10380000CC822E83CE0101967FCF809590958C0D32
:103810009D1DACCFF62E662309F49CCF75132EC0E8
:1038200034132CC02091B80120FD1FC0822F829537
:103830008F70D9F0D80115962C9315978F3049F0D9
:103840008F5F982F9295907F822F8F70892B15967E
:103850008C93C8010E94AC1986E0F801A3EBB1E09B
:1038600001900D928A95E1F793CF86E0F801A3EBE2
:10387000B1E001900D928A95E1F72DC04D875E87EA
:103880008D859E850E94E719811140CF8091B801F6
:1038900081608093B801C8010E94AC191CC06623E6
:1038A00009F458CF4D875E878D859E850E94E71964
:1038B000882309F44FCF2ACF811148CF0CC0243080
:1038C00031050CF047CF9F7009F440CFF801958186
:1038D000907F09F03BCF8F2D62960FB6F894DEBF34
:1038E0000FBECDBFDF91CF911F910F91FF90EF9051
:1038F000DF90CF9008951F93CF93DF93CDB7DEB7BE
:103900002C970FB6F894DEBF0FBECDBF4F835887FC
:1039100069877A878B879C87CE0107960E94B41AA5
:10392000882369F08F8198852A853B85232BF1F1C7
:103930009F3F09F063C08F3F09F060C037C086E049
:10394000FE013796DE01119601900D928A95E1F7FE
:103950006F817885EA85FB85309741F17F3F11F4CF
:103960006F3F21F12091820130E0C90101968770FB
:1039700099274091810150E08417950709F447C0C9
:1039800069837A83FD83EC8396E0929FD001939FB5
:10399000B00D1124AD57BE4FFE01319601900D922E
:1039A0009A95E1F7809382010E942A1A16E080918D
:1039B0008101909182018917C1F1189FC0011124E2
:1039C0008D579E4F0E94B41A882379F1E0918101AE
:1039D0001E9FF0011124ED57FE4F408151816281FD
:1039E0007381848195810E941A1A8091810190E0EF
:1039F00001968770992780938101D9CF4F8158858F
:103A000069857A858B859C850E941A1ACFCF0E9482
:103A1000E3191092820110928101E3EBF1E086E05C
:103A2000DF011D928A95E9F7C1CF2C960FB6F89465
:103A3000DEBF0FBECDBFDF91CF911F910895EF92F2
:103A4000FF920F931F93CF93DF938C01892B09F47F
:103A50006CC0F12CEE24E394E8012196F8018491E6
:103A6000843740F4843008F051C0813081F08230D6
:103A700019F15BC0853709F444C0A8F19CE7980FA1
:103A8000903708F052C08F770E940B1741C00E5F2D
:103A90001F4FFE01C49180E28C0F883048F4C7703C
:103AA0008E2D01C0880FCA95EAF70E94202014C00D
:103AB0008C2F0E9438162DC00E5F1F4FFE01C4913F
:103AC00080E28C0F883058F4C7708E2D01C0880FAB
:103AD000CA95EAF70E9426200E9447201AC08C2F20
:103AE0000E940B1716C00E5F1F4FFE01C491CC231E
:103AF00081F08FE99FE00197F1F700C00000C1500D
:103B0000F6CF0E5F1F4FFE01F49003C00E943816DF
:103B10008E018F2D882309F49FCFEFE9FFE03197C5
:103B2000F1F700C000008150F5CFDF91CF911F91D8
:103B30000F91FF90EF90089508956093BD017093E9
:103B4000BE018093BF019093C0010C94D3190F93D1
:103B50001F930091BD011091BE012091BF013091D2
:103B6000C001DC01CB01802B912BA22BB32B8093C6
:103B7000BD019093BE01A093BF01B093C0011F91FE
:103B80000F910C94D3190F931F930091BD011091C5
:103B9000BE012091BF013091C001DC01CB01802327
:103BA0009123A223B3238093BD019093BE01A093E0
:103BB000BF01B093C0011F910F910C94D3190F93C3
:103BC0001F930091BD011091BE012091BF01309162
:103BD000C001DC01CB0180279127A227B327809366
:103BE000BD019093BE01A093BF01B093C0011F918E
:103BF0000F910C94D3191092B9011092BA0110923E
:103C0000BB011092BC010C94D31941E050E060E07C
:103C100070E004C0440F551F661F771F8A95D2F7C6
:103C20004093B9015093BA016093BB017093BC01FA
:103C30000C94D31941E050E060E070E004C0440F00
:103C4000551F661F771F8A95D2F78091B901909111
:103C5000BA01A091BB01B091BC01482B592B6A2B32
:103C60007B2B4093B9015093BA016093BB017093D1
:103C7000BC010C94D31941E050E060E070E004C056
:103C8000440F551F661F771F8A95D2F740955095B0
:103C9000609570958091B9019091BA01A091BB0196
:103CA000B091BC01482359236A237B234093B90177
:103CB0005093BA016093BB017093BC010C94D3196B
:103CC00041E050E060E070E004C0440F551F661F03
:103CD000771F8A95D2F78091B9019091BA01A0918E
:103CE000BB01B091BC01482759276A277B27409325
:103CF000B9015093BA016093BB017093BC010C945D
:103D0000D3190F931F930091B9011091BA0120911B
:103D1000BB013091BC01DC01CB01802B912BA22B8C
:103D2000B32B8093B9019093BA01A093BB01B093D8
:103D3000BC011F910F910C94D3190F931F93009105
:103D4000B9011091BA012091BB013091BC01DC0195
:103D5000CB0180239123A223B3238093B9019093B5
:103D6000BA01A093BB01B093BC011F910F910C94B9
:103D7000D3190F931F930091B9011091BA012091AB
:103D8000BB013091BC01DC01CB0180279127A22728
:103D9000B3278093B9019093BA01A093BB01B0936C
:103DA000BC011F910F910C94D3190895CF92DF920B
:103DB000EF92FF920F931F93CF93DF938C01C090EC
:103DC000BD01D090BE01E090BF01F090C001809194
:103DD000B9019091BA01A091BB01B091BC01C82A70
:103DE000D92AEA2AFB2ACFE1D0E0D701C6010C2E5E
:103DF00004C0B695A795979587950A94D2F780FF4A
:103E000006C0B8018C2F0E942E0A019721F4219739
:103E100060F780E001C08C2FDF91CF911F910F914F
:103E2000FF90EF90DF90CF900895CF93DF93EC0158
:103E30000E94D61EBE010E942E0ADF91CF910895E6
:103E4000CB010E94151F08958091C101859585952C
:103E5000859508958091C1018770089598E0899FA4
:103E600090011124262B2093C1010C941A1E20913D
:103E7000C101809582238093C101982F977069F4C6
:103E800030E0482F552747FD50952417350729F076
:103E90008595859585950C943B1E08959091C1015B
:103EA000977081E009F480E0089590910E019923C4
:103EB00021F09091320297FD09C0209102013091CA
:103EC0000301F90132969FEF40E030C0982F96959C
:103ED000969596959F31A0F4E0910201F09103012F
:103EE000E90FF11D877021E030E0A90102C0440F05
:103EF000551F8A95E2F7CA019181892B8183089524
:103F00009091E60190FF23C01F928F938AE198E081
:103F10009F938F930E9417080F900F900F900F9010
:103F200008959F3F39F04F5F4E3141F05191581342
:103F3000F8CF0DC05111F7CF942FF5CF9F3F39F037
:103F4000F901E90FF11D97FDFA958283089508950F
:103F500090910E01992321F09091320297FD09C0B2
:103F60002091020130910301F9013296205E3F4F0A
:103F700030C0982F9695969596959F31A8F4E0912C
:103F80000201F0910301E90FF11D877021E030E09B
:103F9000A90102C0440F551F8A95E2F7CA01809516
:103FA00091818923818308959091E60190FF16C045
:103FB0001F928F938CEF97E09F938F930E94170827
:103FC0000F900F900F900F9008953196E217F3071E
:103FD00029F090819813F9CF1082F7CF089581E0EE
:103FE00090E0E0910201F0910301E80FF91F1082C7
:103FF000019680329105A9F708958091E501089511
:104000009091E501892B8093E50108958095909129
:10401000E50189238093E50108951092E501089553
:104020009091E401892B8093E4010895809590910B
:10403000E40189238093E40108951092E401089536
:104040009091E301892B8093E301089580959091ED
:10405000E30189238093E30108951092E301089519
:104060008093C20108951092C201089580910201C7
:1040700090910301FC0131969C01205E3F4F80E04E
:10408000919191118F5FE217F307D1F70895E091B5
:104090000201F09103018091E5018083E09102012A
:1040A000F091030190818091E401892B8083E0915C
:1040B0000201F091030190818091E301892B8083BB
:1040C0008091C201882361F0E0910201F091030127
:1040D0009081892B80830E94362081111092C20129
:1040E00080910201909103010C94A91490933701DF
:1040F0008093360108958295982F9C7C392F3695B0
:104100003695282F237344E0249FC0011124932F58
:10411000982B292F2A7A2695892F8575880F822B2F
:1041200008951F93CF93DF931F92CDB7DEB7998386
:104130000E947B20182F9981892F0E947B20212F9C
:1041400030E0322F2227A901482BCA010F90DF91BE
:10415000CF911F9108956DEE7EEF80E090E00E9478
:10416000B82C60E082E090E00E949B2C60E083E04D
:1041700090E00E949B2C60E084E090E00E949B2CE9
:1041800060E085E090E00E949B2C60E086E090E09B
:104190000E949B2C40E050E0BA0188E090E00C9433
:1041A000AC2C80E090E00E94952C21E08D3E9E4F4B
:1041B00009F020E0822F089582E090E00C94872C93
:1041C00083E090E00C94872C84E090E00C94872CA2
:1041D000682F84E090E00C949B2C86E090E00C9497
:1041E000872C682F86E090E00C949B2C80913902FC
:1041F000843051F11092E70120E488E190E00FB69D
:10420000F894A895809360000FBE2093600080E032
:104210000E94020A80E00E942C0A83B7817F84609A
:1042200083BF83B7816083BF7894889583B78E7F7F
:1042300083BF0FB6F894A895809160008861809341
:104240006000109260000FBE089508950895CF9306
:1042500080E00E94020A0E9425210E94150D0E9402
:104260002621C0E08C2F0E94D70D892B29F4CF5F27
:10427000C530C1F780E001C081E0CF9108950E9470
:10428000E31980E00E94020A0E94D5230E949D1437
:104290000C942C0A1F920F920FB60F9211248F9339
:1042A0009F93AF93BF938091E701811113C08091D9
:1042B000E8019091E901A091EA01B091EB014196EA
:1042C000A11DB11D8093E8019093E901A093EA013B
:1042D000B093EB01BF91AF919F918F910F900FBE63
:1042E0000F901F90189582E084BD93E095BD9AEFE2
:1042F00097BD80936E0008952FB7F8948091E801E0
:104300009091E901A091EA01B091EB012FBF0895CE
:104310002FB7F8946091E8017091E9018091EA016A
:104320009091EB012FBF0895CF92DF92EF92FF9211
:104330000F931F932FB7F8944091E8015091E90132
:104340006091EA017091EB012FBF6A017B01EE24BD
:10435000FF248C0120E030E0C016D106E206F3060F
:1043600010F4415051099A01281B390BC9011F91C2
:104370000F91FF90EF90DF90CF9008951F920F92D2
:104380000FB60F9211248F939F93AF93BF93809199
:10439000E8019091E901A091EA01B091EB01019649
:1043A000A11DB11D8093E8019093E901A093EA015A
:1043B000B093EB01BF91AF919F918F910F900FBE82
:1043C0000F901F9018950E945029F8942FEF87EABC
:1043D00091E6215080409040E1F700C0000087E066
:1043E00090EBDC018093420290934302A09344023D
:1043F000B09345029CE088E10FB6F894A8958093AD
:1044000060000FBE90936000FFCF0E94D120811109
:1044100002C00E94AB200E94DC208093E6010E9433
:10442000E42090E090933302809332020E94E020D7
:10443000682F70E080E090E00C949D1DCF93C82F12
:104440001F928F938EE398E09F938F930E9417089B
:1044500081E090E0A0E0B0E0BC01CD0104C0660FB7
:10446000771F881F991FCA95D2F70E949D1D0F9034
:104470000F900F900F90CF910C94E319CF93873248
:10448000A8F58E3108F030C1803109F49FC0F8F4EE
:10449000873009F45FC0A8F4863009F02BC1809101
:1044A000E601817F8E7F8093E60187EE99E00E948E
:1044B0007E078CE39CE00E947E0781E08093EC0104
:1044C00047C08B30F1F18E3009F46CC013C18631D6
:1044D00009F4AEC020F4813109F4EEC00BC189317A
:1044E00009F48FC08B3109F449C004C1883349F104
:1044F00050F4893209F4FAC0853309F4F7C08732E1
:1045000009F4F4C0F7C0833409F4F0C028F48A3306
:1045100008F4F0C08953EBC0883409F0EBC00E9466
:10452000E31980E29CE00E947E072FEF83ED90E389
:10453000215080409040E1F700C000000E94E3213C
:1045400007C082E09AE002C087E09CE00E947E07FC
:10455000C1E0D5C08091E601C82FC095C170C0FBF5
:1045600080F98093E601CC2379F384E19CE00E94FA
:104570007E078091E601866088603DC09091E601EB
:1045800091FBCC27C0F981E0C827892FC0FB81F9B6
:104590008093E601CC2319F08AEF9BE027C08CEED4
:1045A0009BE0D4CF9091E60192FBCC27C0F981E04B
:1045B000C827892FC0FB82F98093E601CC2319F02C
:1045C0008DED9BE013C08DEC9BE0C0CF9091E60198
:1045D00093FBCC27C0F981E0C827892FC0FB83F962
:1045E0008093E601CC2351F081EC9BE00E947E0792
:1045F0008091E60181608093E60181C084EB9BE0BD
:10460000A5CF88ED99E00E947E0788E999E00E9495
:104610007E0789E599E00E947E0781E299E00E9489
:104620007E078FEE98E00E947E0784EC98E08ECFA4
:1046300086EB98E00E947E070E949D141F928F9344
:104640008CE998E09F938F930E94170880910E0148
:104650001F928F9385E898E09F938F930E9417088D
:10466000809111021F928F9382E798E09F938F931E
:104670000E9417088091320287FB882780F91F92D9
:104680008F938AE598E09F938F930E9417080E946A
:1046900088219F938F937F936F9383E498E09F93F8
:1046A0008F930E9417088DB79EB746960FB6F89461
:1046B0009EBF0FBE8DBF4CCF0E94E3199091320276
:1046C00097FBCC27C0F981E0C827892FC0FB87F969
:1046D00080933202CC2329F08AEA9BE00E947E0775
:1046E0000EC08FE99BE032CF8D5101C080E00E9467
:1046F0001E222ECF8DE99BE00E947E07C0E08C2F0A
:10470000CF91089580E0089580E00895CF93C82F59
:104710008091EC01882319F0813049F03EC0E0918E
:104720000201F091030180818232C9F507C0E09156
:104730000201F09103018081823261F48C2F0E948A
:104740008223811104C08C2F0E943E2224C081E06C
:1047500090E021C08C2F0E94842381111BC0C431A2
:1047600089F018F4CB3029F010C0C93259F0C833A1
:1047700061F487EE99E00E947E078AE398E00E9448
:104780007E0708C01092EC010CC088E398E00E94FC
:104790007E0707C081E0817006C01092EC0180E0C6
:1047A00002C080E0F8CFCF9108950E94D1208111FE
:1047B00002C00E94AB200E94ED208093340280FF53
:1047C00002C0869501C080E00C94020A80913402F8
:1047D000982F9695292F30E0243031054CF49F5FB7
:1047E000990F8170892B8160809334020E94F1209F
:1047F0008091E60180FF0FC08091340286951F9260
:104800008F9382E89CE09F938F930E9417080F90EC
:104810000F900F900F908091340286950C94020AAD
:1048200080913402982F969591F09158990F81704C
:10483000892B809334028E7F91E009F490E080917F
:10484000340290FB80F9809334020E94F120809121
:10485000E60180FF0FC08091340286951F928F93EE
:104860008AE69CE09F938F930E9417080F900F9009
:104870000F900F908091340286950C94020A8091DB
:104880003402982F909590FB80F9809334020E9417
:10489000F1208091E60180FF0FC080913402817089
:1048A0001F928F9384E59CE09F938F930E9417083B
:1048B0000F900F900F900F908091340280FF02C0F4
:1048C000869501C080E00C94020A90913402892FF1
:1048D00086958F5F8F779170853028F4880F892BAC
:1048E0008093340202C090933402809134028E7F10
:1048F00091E009F490E08091340290FB80F980937C
:1049000034020E94F1208091E60180FF0FC0809167
:10491000340286951F928F9380E49CE09F938F933F
:104920000E9417080F900F900F900F908091340203
:1049300086950C94020A20913402922F969589272D
:10494000982F990F822F8170892B809334028E7F4C
:1049500091E009F490E08091340290FB80F980931B
:1049600034020E94F1208091340286950C94020A50
:1049700080911002089508959FB7F8941092EF0166
:104980009FBF90913902943009F057C09091E9008F
:104990009F703091EC00232F217030FD20E8922B86
:1049A00023E02093E9002091EB0020FF43C02091F9
:1049B000EE0027FF3FC02091ED01222321F020913E
:1049C000E80025FF37C01092ED0126E03091E800A5
:1049D00035FD15C030913902343061F53091EB006E
:1049E00035FD28C0215021F481E08093ED0122C0E3
:1049F000EFE9FFE03197F1F700C00000E7CF8093C7
:104A0000F1008091E80085FD0AC08091E80080FFF8
:104A1000FCCF8091E8008E778093E80006C08FB7C6
:104A2000F89421E02093EF018FBF9F709093E900ED
:104A300080E008959F709093E9008FEF0895CF93E1
:104A4000DF9300D01F92CDB7DEB72091390224301A
:104A500021F523E029839B838A8382E08093E90008
:104A60008FEF9091E800815095FD06C095ED9A95E5
:104A7000F1F700008111F5CF8091E80085FF0DC0AE
:104A800040E050E063E070E0CE0101960E94BB2759
:104A90008091E8008E778093E8000F900F900F9040
:104AA000DF91CF910895CF93DF9300D01F92CDB7C0
:104AB000DEB79C0180913902843019F592E0998328
:104AC0003B832A839093E9008FEF9091E800815017
:104AD00095FD06C095ED9A95F1F700008111F5CF8F
:104AE0008091E80085FF0DC040E050E063E070E099
:104AF000CE0101960E94BB278091E8008E778093BB
:104B0000E8000F900F900F90DF91CF910895CF9311
:104B1000DF93EC0190913902943009F046C0809106
:104B20000E018823D9F08091320287FF17C090933D
:104B3000E9008FEF9091E800815095FD06C095E166
:104B40009A95F1F700008111F5CF8091E80085FF7B
:104B50002CC040E050E060E270E017C081E080933C
:104B6000E9008FEF9091E800815095FD06C095ED2A
:104B70009A95F1F700008111F5CF8091E80085FF4B
:104B800014C040E050E068E070E0CE010E94BB2716
:104B90008091E8008E778093E80080E2FE01A0EF2C
:104BA000B1E001900D928A95E1F7DF91CF910895E0
:104BB0008FEB9CE00E947E0780913802811109C032
:104BC0000E9450290E94AD298091E2008460809368
:104BD000E20008958BEB9CE00E947E071092380261
:104BE000089587EB9CE00C947E0783EB9CE00C948B
:104BF0007E078FEA9CE00E947E070C943F21209163
:104C0000EE012F5F822F62E30E944D2C992319F051
:104C10002093EE0108951092EE018091EF01882318
:104C200071F180913902843041F58091E9008F70F3
:104C30002091EC00922F917020FD90E8892B93E059
:104C40009093E9009091EB0090FF14C09091EE00DA
:104C500097FF10C09091E80095FF03C01092F100FB
:104C6000F9CF9091E80090FF05C09091E8009E7701
:104C70009093E8008F708093E9001092EF010895FF
:104C800042E061EC81E00E94CA2842E061EC82E0EF
:104C90000E94CA2842E261EC83E00E94CA2842E2F4
:104CA00061EC84E00C94CA2880913B02833009F4C3
:104CB00055C030F4813071F0823009F48EC008950F
:104CC0008A3009F47AC08B3009F460C0893009F069
:104CD0009CC020C080913A02813A09F096C0809130
:104CE000E800877F8093E80080913E0290913F0228
:104CF000892B21F460E280EF91E003C060E080E066
:104D000090E070E00E9406288091E8008B77809305
:104D1000E800089580913A02813209F076C08091CE
:104D20003E0290913F02009719F0039709F06DC081
:104D30008091E800877F8093E8008091E80082FD01
:104D400005C0809139028111F8CF5FC08091F100D8
:104D5000809310028091E8008B7753C080913A02D3
:104D6000813A09F052C080913E0290913F02892B16
:104D700009F04BC08091E800877F8093E800809124
:104D8000E80080FFFCCF80910E0136C080913A028E
:104D90008132D9F580913E0290913F02892BA9F58D
:104DA0008091E800877F8093E8000E94FF2880912F
:104DB0003C0280930E010C94E31980913A028132F7
:104DC00021F58091E800877F8093E8000E94FF280A
:104DD00080913D0280931102089580913A02813AB8
:104DE000A1F48091E800877F8093E8008091E8003B
:104DF00080FFFCCF809111028093F1008091E80048
:104E00008E778093E8000C94FF28089584B7877FFD
:104E100084BF0FB6F894A895809160008861809354
:104E20006000109260000FBE80E8809361001092D5
:104E300061000E941F150E9450290E94AD29809197
:104E4000E20084608093E2008CEB94E20E94762082
:104E500078940E94322C0E94211584E091E00E94F7
:104E600098148EE99CE00E947E078091390285307B
:104E700089F48AE99CE00E947E070E94F6208091D6
:104E80003702882391F30E942721882371F30E941F
:104E9000A527EBCF0E945315E8CF292F33272330C6
:104EA0003105C9F064F42130310581F0223031053B
:104EB00009F043C084E790E02BEF3CE042C0213290
:104EC0003105F1F02232310541F137C082E190E045
:104ED0002FE63DE036C099278130910541F08230C0
:104EE000910541F0892B49F5E7EFFCE005C0EDEDB8
:104EF000FCE002C0E3ECFCE0849190E09F0121C063
:104F00006430D8F4E62FF0E0EE0FFF1FE25DFE4FB5
:104F10002081318189E090E014C0643070F470E049
:104F2000FB01EE0FFF1FEA5DFE4F20813181FB0187
:104F3000EE5DFE4F808190E004C080E090E020E0D4
:104F400030E0FA0131832083089580E189BD82E158
:104F500089BD09B400FEFDCF8091D8008F7D80937C
:104F6000D8008091E00082608093E0008091E000B2
:104F700081FDFCCF0895CF92DF92EF92FF920F93C5
:104F80001F93CF93DF93EC018B016A010E941E29CE
:104F9000811133C0C114D10439F0F60180819181AF
:104FA000081B190BC80FD91FE12CF12C0115110595
:104FB00019F18091E80085FD16C08091E8008E7798
:104FC0008093E800C114D10449F0F60180819181F9
:104FD000E80EF91EF182E08285E00FC00E941E29D2
:104FE000882321F30AC089918093F10001501109AF
:104FF000FFEFEF1AFF0ADACF80E0DF91CF911F9128
:105000000F91FF90EF90DF90CF9008952091400294
:10501000309141022617370748F06115710539F4C0
:105020002091E8002E772093E80001C0B90140E00C
:1050300061157105A9F120913902222309F443C0B9
:10504000253009F442C02091E80023FD40C02091A2
:10505000E80022FD32C02091E80020FFE9CF409116
:10506000F3002091F20030E0342BFC01CF016115F8
:10507000710559F02830310540F481918093F10099
:10508000615071092F5F3F4FF1CF41E0283031056A
:1050900009F040E02091E8002E772093E800C8CF87
:1050A0004111C9CF0AC080913902882361F085304F
:1050B00061F08091E80083FD0AC08091E80082FFE2
:1050C000F2CF80E0089582E0089583E0089581E0C2
:1050D000089520914002309141022617370748F089
:1050E0006115710539F42091E8002E772093E800CE
:1050F00001C0B901FC0120E06115710591F18091B9
:105100003902882309F440C0853009F43FC08091FA
:10511000E80083FD3DC08091E80082FD2FC08091B2
:10512000E80080FFE9CF2091F3008091F20090E049
:10513000922B6115710559F08830910540F4249146
:105140002093F1003196615071090196F2CF21E070
:10515000089709F020E08091E8008E778093E800BE
:10516000CBCF2111CCCF0AC080913902882361F0C6
:10517000853061F08091E80083FD0AC08091E800ED
:1051800082FFF2CF80E0089582E0089583E00895E1
:1051900081E00895982F973058F59093E90098177B
:1051A00039F07091EC002091ED005091F00003C0B7
:1051B000242F762F50E021FF19C03091EB003E7F65
:1051C0003093EB003091ED003D7F3093ED00309156
:1051D000EB0031603093EB007093EC002093ED0016
:1051E0005093F0002091EE0027FF07C09F5FD3CFC0
:1051F0008F708093E90081E0089580E008958091A8
:105200003A0287FF11C08091E80082FD05C08091BD
:1052100039028111F8CF11C08091E8008B770BC063
:1052200080913902882349F08091E80080FFF8CF0F
:105230008091E8008E778093E80008952091E40043
:105240003091E50095E64091EC00842F817040FF9D
:1052500022C08091E80080FD1CC080913902882323
:1052600091F0853091F08091EB0085FD10C0409168
:10527000E4005091E5004217530729F39A01915039
:1052800011F784E0089582E0089583E0089581E0B5
:10529000089580E008954091E80042FFDECF089530
:1052A0000E94BE290E94C629E0EEF0E08081816064
:1052B0008083E8EDF0E080818F77808319BCA7EDD3
:1052C000B0E08C918E7F8C9380818F7E8083109252
:1052D000380208950F931F93CF93DF930E94BE2946
:1052E0000E94C629C8EDD0E088818F7788838881A5
:1052F0008068888388818F7D888319BC10923902E9
:1053000010923502109237021092360200EE10E031
:10531000F80180818B7F808388818160888342E06F
:1053200060E080E00E94CA28E1EEF0E080818E7F9C
:105330008083E2EEF0E080818160808380818860FC
:105340008083F80180818E7F80838881806188835B
:10535000DF91CF911F910F910895E8EDF0E08081EA
:105360008F7E8083E7EDF0E080818160808384E040
:1053700082BF81E0809338020C946A29E8EDF0E066
:1053800080818E7F80831092E20008951092DA006F
:105390001092E10008951F920F920FB60F92112400
:1053A0002F933F934F935F936F937F938F939F932D
:1053B000AF93BF93EF93FF938091E10082FF0BC007
:1053C0008091E20082FF07C08091E1008B7F809393
:1053D000E1000E94FF258091DA0080FF1FC08091CC
:1053E000D80080FF1BC08091DA008E7F8093DA00A6
:1053F0008091D90080FF0DC080E189BD82E189BD27
:1054000009B400FEFDCF81E0809339020E94D825C7
:1054100005C019BC109239020E94EA258091E10072
:1054200080FF19C08091E20080FF15C08091E200EA
:105430008E7F8093E2008091E20080618093E200A1
:105440008091D80080628093D80019BC85E0809359
:1054500039020E94F5258091E10084FF30C08091DF
:10546000E20084FF2CC080E189BD82E189BD09B4DE
:1054700000FEFDCF8091D8008F7D8093D800809171
:10548000E1008F7E8093E1008091E2008F7E809327
:10549000E2008091E20081608093E2008091350219
:1054A000882311F084E007C08091E30087FD02C0EB
:1054B00081E001C083E0809339020E94F925809148
:1054C000E10083FF29C08091E20083FF25C0809125
:1054D000E100877F8093E10082E08093390210929F
:1054E00035028091E1008E7F8093E1008091E2009F
:1054F0008E7F8093E2008091E20080618093E200E1
:1055000042E060E080E00E94CA288091F00088605C
:105510008093F0000E94F125FF91EF91BF91AF9130
:105520009F918F917F916F915F914F913F912F91BB
:105530000F900FBE0F901F9018951F920F920FB6ED
:105540000F9211242F933F934F935F936F937F9309
:105550008F939F93AF93BF93CF93DF93EF93FF937B
:10556000C091E900CF708091EC00D82FD17080FD00
:10557000D0E81092E9008091F000877F8093F000DE
:1055800078940E94E12A1092E9008091F0008860EE
:105590008093F000CD2BCF70C093E900FF91EF9185
:1055A000DF91CF91BF91AF919F918F917F916F913B
:1055B0005F914F913F912F910F900FBE0F901F90D1
:1055C00018951F93CF93DF93CDB7DEB7AA970FB689
:1055D000F894DEBF0FBECDBFEAE3F2E088E08E0FA5
:1055E0009091F10091938E13FBCF0E9454268091ED
:1055F000E80083FF1FC180913A0290913B02492F3E
:1056000050E04A30510508F015C1FA01E556FF4F48
:105610000C94812C803881F0823809F00BC1809184
:105620003E028F708093E9008091EB0085FB882714
:1056300080F91092E90006C08091360290913702FD
:10564000911182609091E800977F9093E800809399
:10565000F1001092F100C8C0282F2D7F09F0EAC098
:10566000882319F0823061F0E5C080913C028130DE
:1056700009F0E0C0933009F080E0809337022BC03E
:1056800080913C02811127C080913E028F7009F405
:10569000D1C08093E9002091EB0020FF1CC0933023
:1056A00021F48091EB00806214C09091EB00906136
:1056B0009093EB0021E030E0A90102C0440F551F98
:1056C0008A95E2F74093EA001092EA008091EB009D
:1056D00088608093EB001092E9008091E800877F5A
:1056E00086C08111A7C010913C021F778091E30012
:1056F0008078812B8093E3008091E800877F8093FE
:10570000E8000E94FF288091E80080FFFCCF809194
:10571000E30080688093E300111102C082E001C0C1
:1057200083E08093390286C08058823008F082C0BE
:1057300080913C0290913D028C3D53E0950779F5B4
:1057400083E08A838AE289834FB7F894DE01139657
:1057500020E03EE051E2E32FF0E050935700E49167
:1057600020FF03C0E295EF703F5FEF708E2F90E057
:10577000EA3010F0C79601C0C0968D939D932F5FBD
:10578000243149F74FBF8091E800877F8093E8007C
:105790006AE270E0CE0101960E94062814C0AE01B4
:1057A0004F5F5F4F60913E020E944D27BC01892BE5
:1057B00009F440C09091E800977F9093E8008981B8
:1057C0009A810E9469288091E8008B778093E80095
:1057D00031C0803879F58091E800877F8093E800B8
:1057E000809135028093F1008091E8008E7780935C
:1057F000E8000E94FF281EC081111CC090913C024D
:105800009230C0F48091E800877F8093E800909305
:1058100035020E94FF2880913502811106C08091D7
:10582000E30087FD02C081E001C084E0809339027B
:105830000E9440268091E80083FF0AC08091E80022
:10584000877F8093E8008091EB0080628093EB007B
:10585000AA960FB6F894DEBF0FBECDBFDF91CF91F1
:105860001F910895CF93809139028823A1F0C091B0
:10587000E900CF709091EC00892F817090FD80E855
:10588000C82B1092E9008091E80083FD0E94E12A74
:10589000CF70C093E900CF910895991B79E004C0BF
:1058A000991F961708F0961B881F7A95C9F780955F
:1058B0000895AA1BBB1B51E107C0AA1FBB1FA61757
:1058C000B70710F0A61BB70B881F991F5A95A9F7A9
:1058D00080959095BC01CD01089597FB072E16F495
:1058E000009407D077FD09D00E94592C07FC05D001
:1058F0003EF4909581959F4F0895709561957F4FE7
:105900000895EE0FFF1F0590F491E02D0994F99989
:10591000FECF92BD81BDF89A992780B50895A6E182
:10592000B0E044E050E00C94C02CA8E1B0E042E0CC
:1059300050E00C94C02C262FF999FECF92BD81BD6A
:10594000F89A019700B4021631F020BD0FB6F89412
:10595000FA9AF99A0FBE08950396272F0E949C2C5D
:105960000E949B2C252F0E949C2C242F0C949C2C55
:105970000196272F0E949C2C0C949B2CDC01CB01C0
:10598000FC01F999FECF06C0F2BDE1BDF89A31964F
:1059900000B40D9241505040B8F70895F894FFCFED
:1059A00005FFC301B8248725BB2453251F2501F01B
:1059B000F1C66766379431303534979633909192BB
:1059C000939540362239120EDC0DBA0D810D0D0D66
:0659D000260D3F0D5F0DE6
:00000001FF
